{
	"contracts/Wallet_distributed.sol": {
		"Multisig": {
			"abi": [
				{
					"inputs": [
						{
							"internalType": "address[]",
							"name": "_owners",
							"type": "address[]"
						},
						{
							"internalType": "uint256",
							"name": "_numconfirmRequired",
							"type": "uint256"
						}
					],
					"stateMutability": "nonpayable",
					"type": "constructor"
				},
				{
					"anonymous": false,
					"inputs": [
						{
							"indexed": false,
							"internalType": "uint256",
							"name": "transactionID",
							"type": "uint256"
						}
					],
					"name": "TransactionConfirmed",
					"type": "event"
				},
				{
					"anonymous": false,
					"inputs": [
						{
							"indexed": false,
							"internalType": "uint256",
							"name": "transactionID",
							"type": "uint256"
						},
						{
							"indexed": false,
							"internalType": "address",
							"name": "sender",
							"type": "address"
						},
						{
							"indexed": false,
							"internalType": "address",
							"name": "receiver",
							"type": "address"
						},
						{
							"indexed": false,
							"internalType": "uint256",
							"name": "amount",
							"type": "uint256"
						}
					],
					"name": "Transactionsubmitted",
					"type": "event"
				},
				{
					"inputs": [
						{
							"internalType": "uint256",
							"name": "_transactionID",
							"type": "uint256"
						}
					],
					"name": "confiremTransaction",
					"outputs": [],
					"stateMutability": "nonpayable",
					"type": "function"
				},
				{
					"inputs": [
						{
							"internalType": "uint256",
							"name": "_transactionID",
							"type": "uint256"
						}
					],
					"name": "executeTransaction",
					"outputs": [],
					"stateMutability": "payable",
					"type": "function"
				},
				{
					"inputs": [],
					"name": "numconfirmRequired",
					"outputs": [
						{
							"internalType": "uint256",
							"name": "",
							"type": "uint256"
						}
					],
					"stateMutability": "view",
					"type": "function"
				},
				{
					"inputs": [
						{
							"internalType": "uint256",
							"name": "",
							"type": "uint256"
						}
					],
					"name": "owners",
					"outputs": [
						{
							"internalType": "address",
							"name": "",
							"type": "address"
						}
					],
					"stateMutability": "view",
					"type": "function"
				},
				{
					"inputs": [
						{
							"internalType": "address",
							"name": "_to",
							"type": "address"
						}
					],
					"name": "submitTransaction",
					"outputs": [],
					"stateMutability": "payable",
					"type": "function"
				},
				{
					"inputs": [
						{
							"internalType": "uint256",
							"name": "",
							"type": "uint256"
						}
					],
					"name": "transactions",
					"outputs": [
						{
							"internalType": "address",
							"name": "to",
							"type": "address"
						},
						{
							"internalType": "uint256",
							"name": "value",
							"type": "uint256"
						},
						{
							"internalType": "bool",
							"name": "executed",
							"type": "bool"
						}
					],
					"stateMutability": "view",
					"type": "function"
				}
			],
			"devdoc": {
				"kind": "dev",
				"methods": {},
				"version": 1
			},
			"evm": {
				"assembly": "    /* \"contracts/Wallet_distributed.sol\":73:3090  contract Multisig {\r... */\n  mstore(0x40, 0x80)\n    /* \"contracts/Wallet_distributed.sol\":509:983  constructor(address[] memory _owners, uint _numconfirmRequired){\r... */\n  callvalue\n  dup1\n  iszero\n  tag_1\n  jumpi\n  0x00\n  dup1\n  revert\ntag_1:\n  pop\n  mload(0x40)\n  sub(codesize, bytecodeSize)\n  dup1\n  bytecodeSize\n  dup4\n  codecopy\n  dup2\n  dup2\n  add\n  0x40\n  mstore\n  dup2\n  add\n  swap1\n  tag_2\n  swap2\n  swap1\n  tag_3\n  jump\t// in\ntag_2:\n    /* \"contracts/Wallet_distributed.sol\":605:606  1 */\n  0x01\n    /* \"contracts/Wallet_distributed.sol\":590:597  _owners */\n  dup3\n    /* \"contracts/Wallet_distributed.sol\":590:604  _owners.length */\n  mload\n    /* \"contracts/Wallet_distributed.sol\":590:606  _owners.length>1 */\n  gt\n    /* \"contracts/Wallet_distributed.sol\":582:648  require(_owners.length>1,\"Owners required must be greater than 1\") */\n  tag_6\n  jumpi\n  mload(0x40)\n  0x08c379a000000000000000000000000000000000000000000000000000000000\n  dup2\n  mstore\n  0x04\n  add\n  tag_7\n  swap1\n  tag_8\n  jump\t// in\ntag_7:\n  mload(0x40)\n  dup1\n  swap2\n  sub\n  swap1\n  revert\ntag_6:\n    /* \"contracts/Wallet_distributed.sol\":686:687  0 */\n  0x00\n    /* \"contracts/Wallet_distributed.sol\":666:685  _numconfirmRequired */\n  dup2\n    /* \"contracts/Wallet_distributed.sol\":666:687  _numconfirmRequired>0 */\n  gt\n    /* \"contracts/Wallet_distributed.sol\":666:725  _numconfirmRequired>0 && numconfirmRequired<=_owners.length */\n  dup1\n  iszero\n  tag_9\n  jumpi\n  pop\n    /* \"contracts/Wallet_distributed.sol\":711:718  _owners */\n  dup2\n    /* \"contracts/Wallet_distributed.sol\":711:725  _owners.length */\n  mload\n    /* \"contracts/Wallet_distributed.sol\":691:709  numconfirmRequired */\n  sload(0x01)\n    /* \"contracts/Wallet_distributed.sol\":691:725  numconfirmRequired<=_owners.length */\n  gt\n  iszero\n    /* \"contracts/Wallet_distributed.sol\":666:725  _numconfirmRequired>0 && numconfirmRequired<=_owners.length */\ntag_9:\n    /* \"contracts/Wallet_distributed.sol\":658:768  require(_numconfirmRequired>0 && numconfirmRequired<=_owners.length, \"Number of confirmation does not match \") */\n  tag_10\n  jumpi\n  mload(0x40)\n  0x08c379a000000000000000000000000000000000000000000000000000000000\n  dup2\n  mstore\n  0x04\n  add\n  tag_11\n  swap1\n  tag_12\n  jump\t// in\ntag_11:\n  mload(0x40)\n  dup1\n  swap2\n  sub\n  swap1\n  revert\ntag_10:\n    /* \"contracts/Wallet_distributed.sol\":784:790  uint i */\n  0x00\n    /* \"contracts/Wallet_distributed.sol\":780:927  for(uint i=0; i<_owners.length;i++){\r... */\ntag_13:\n    /* \"contracts/Wallet_distributed.sol\":796:803  _owners */\n  dup3\n    /* \"contracts/Wallet_distributed.sol\":796:810  _owners.length */\n  mload\n    /* \"contracts/Wallet_distributed.sol\":794:795  i */\n  dup2\n    /* \"contracts/Wallet_distributed.sol\":794:810  i<_owners.length */\n  lt\n    /* \"contracts/Wallet_distributed.sol\":780:927  for(uint i=0; i<_owners.length;i++){\r... */\n  iszero\n  tag_14\n  jumpi\n    /* \"contracts/Wallet_distributed.sol\":857:858  0 */\n  0x00\n    /* \"contracts/Wallet_distributed.sol\":837:859  _owners[i]!=address(0) */\n  0xffffffffffffffffffffffffffffffffffffffff\n  and\n    /* \"contracts/Wallet_distributed.sol\":837:844  _owners */\n  dup4\n    /* \"contracts/Wallet_distributed.sol\":845:846  i */\n  dup3\n    /* \"contracts/Wallet_distributed.sol\":837:847  _owners[i] */\n  dup2\n  mload\n  dup2\n  lt\n  tag_16\n  jumpi\n  tag_17\n  tag_18\n  jump\t// in\ntag_17:\ntag_16:\n  0x20\n  mul\n  0x20\n  add\n  add\n  mload\n    /* \"contracts/Wallet_distributed.sol\":837:859  _owners[i]!=address(0) */\n  0xffffffffffffffffffffffffffffffffffffffff\n  and\n  eq\n  iszero\n    /* \"contracts/Wallet_distributed.sol\":829:877  require(_owners[i]!=address(0),\" Invalid Owner\") */\n  tag_19\n  jumpi\n  mload(0x40)\n  0x08c379a000000000000000000000000000000000000000000000000000000000\n  dup2\n  mstore\n  0x04\n  add\n  tag_20\n  swap1\n  tag_21\n  jump\t// in\ntag_20:\n  mload(0x40)\n  dup1\n  swap2\n  sub\n  swap1\n  revert\ntag_19:\n    /* \"contracts/Wallet_distributed.sol\":891:897  owners */\n  0x00\n    /* \"contracts/Wallet_distributed.sol\":903:910  _owners */\n  dup4\n    /* \"contracts/Wallet_distributed.sol\":911:912  i */\n  dup3\n    /* \"contracts/Wallet_distributed.sol\":903:913  _owners[i] */\n  dup2\n  mload\n  dup2\n  lt\n  tag_22\n  jumpi\n  tag_23\n  tag_18\n  jump\t// in\ntag_23:\ntag_22:\n  0x20\n  mul\n  0x20\n  add\n  add\n  mload\n    /* \"contracts/Wallet_distributed.sol\":891:914  owners.push(_owners[i]) */\n  swap1\n  dup1\n  0x01\n  dup2\n  sload\n  add\n  dup1\n  dup3\n  sstore\n  dup1\n  swap2\n  pop\n  pop\n  0x01\n  swap1\n  sub\n  swap1\n  0x00\n  mstore\n  keccak256(0x00, 0x20)\n  add\n  0x00\n  swap1\n  swap2\n  swap1\n  swap2\n  swap1\n  swap2\n  0x0100\n  exp\n  dup2\n  sload\n  dup2\n  0xffffffffffffffffffffffffffffffffffffffff\n  mul\n  not\n  and\n  swap1\n  dup4\n  0xffffffffffffffffffffffffffffffffffffffff\n  and\n  mul\n  or\n  swap1\n  sstore\n  pop\n    /* \"contracts/Wallet_distributed.sol\":811:814  i++ */\n  dup1\n  dup1\n  tag_25\n  swap1\n  tag_26\n  jump\t// in\ntag_25:\n  swap2\n  pop\n  pop\n    /* \"contracts/Wallet_distributed.sol\":780:927  for(uint i=0; i<_owners.length;i++){\r... */\n  jump(tag_13)\ntag_14:\n  pop\n    /* \"contracts/Wallet_distributed.sol\":955:974  _numconfirmRequired */\n  dup1\n    /* \"contracts/Wallet_distributed.sol\":936:954  numconfirmRequired */\n  0x01\n    /* \"contracts/Wallet_distributed.sol\":936:974  numconfirmRequired=_numconfirmRequired */\n  dup2\n  swap1\n  sstore\n  pop\n    /* \"contracts/Wallet_distributed.sol\":509:983  constructor(address[] memory _owners, uint _numconfirmRequired){\r... */\n  pop\n  pop\n    /* \"contracts/Wallet_distributed.sol\":73:3090  contract Multisig {\r... */\n  jump(tag_27)\n    /* \"#utility.yul\":24:768   */\ntag_29:\n    /* \"#utility.yul\":131:136   */\n  0x00\n    /* \"#utility.yul\":156:237   */\n  tag_31\n    /* \"#utility.yul\":172:236   */\n  tag_32\n    /* \"#utility.yul\":229:235   */\n  dup5\n    /* \"#utility.yul\":172:236   */\n  tag_33\n  jump\t// in\ntag_32:\n    /* \"#utility.yul\":156:237   */\n  tag_34\n  jump\t// in\ntag_31:\n    /* \"#utility.yul\":147:237   */\n  swap1\n  pop\n    /* \"#utility.yul\":257:262   */\n  dup1\n    /* \"#utility.yul\":286:292   */\n  dup4\n    /* \"#utility.yul\":279:284   */\n  dup3\n    /* \"#utility.yul\":272:293   */\n  mstore\n    /* \"#utility.yul\":320:324   */\n  0x20\n    /* \"#utility.yul\":313:318   */\n  dup3\n    /* \"#utility.yul\":309:325   */\n  add\n    /* \"#utility.yul\":302:325   */\n  swap1\n  pop\n    /* \"#utility.yul\":346:352   */\n  dup3\n    /* \"#utility.yul\":396:399   */\n  dup6\n    /* \"#utility.yul\":388:392   */\n  0x20\n    /* \"#utility.yul\":380:386   */\n  dup7\n    /* \"#utility.yul\":376:393   */\n  mul\n    /* \"#utility.yul\":371:374   */\n  dup3\n    /* \"#utility.yul\":367:394   */\n  add\n    /* \"#utility.yul\":364:400   */\n  gt\n    /* \"#utility.yul\":361:504   */\n  iszero\n  tag_35\n  jumpi\n    /* \"#utility.yul\":415:494   */\n  tag_36\n  tag_37\n  jump\t// in\ntag_36:\n    /* \"#utility.yul\":361:504   */\ntag_35:\n    /* \"#utility.yul\":528:529   */\n  0x00\n    /* \"#utility.yul\":513:762   */\ntag_38:\n    /* \"#utility.yul\":538:544   */\n  dup6\n    /* \"#utility.yul\":535:536   */\n  dup2\n    /* \"#utility.yul\":532:545   */\n  lt\n    /* \"#utility.yul\":513:762   */\n  iszero\n  tag_40\n  jumpi\n    /* \"#utility.yul\":606:609   */\n  dup2\n    /* \"#utility.yul\":635:683   */\n  tag_41\n    /* \"#utility.yul\":679:682   */\n  dup9\n    /* \"#utility.yul\":667:677   */\n  dup3\n    /* \"#utility.yul\":635:683   */\n  tag_42\n  jump\t// in\ntag_41:\n    /* \"#utility.yul\":630:633   */\n  dup5\n    /* \"#utility.yul\":623:684   */\n  mstore\n    /* \"#utility.yul\":713:717   */\n  0x20\n    /* \"#utility.yul\":708:711   */\n  dup5\n    /* \"#utility.yul\":704:718   */\n  add\n    /* \"#utility.yul\":697:718   */\n  swap4\n  pop\n    /* \"#utility.yul\":747:751   */\n  0x20\n    /* \"#utility.yul\":742:745   */\n  dup4\n    /* \"#utility.yul\":738:752   */\n  add\n    /* \"#utility.yul\":731:752   */\n  swap3\n  pop\n    /* \"#utility.yul\":573:762   */\n  pop\n    /* \"#utility.yul\":560:561   */\n  0x01\n    /* \"#utility.yul\":557:558   */\n  dup2\n    /* \"#utility.yul\":553:562   */\n  add\n    /* \"#utility.yul\":548:562   */\n  swap1\n  pop\n    /* \"#utility.yul\":513:762   */\n  jump(tag_38)\ntag_40:\n    /* \"#utility.yul\":517:531   */\n  pop\n    /* \"#utility.yul\":137:768   */\n  pop\n  pop\n    /* \"#utility.yul\":24:768   */\n  swap4\n  swap3\n  pop\n  pop\n  pop\n  jump\t// out\n    /* \"#utility.yul\":774:917   */\ntag_42:\n    /* \"#utility.yul\":831:836   */\n  0x00\n    /* \"#utility.yul\":862:868   */\n  dup2\n    /* \"#utility.yul\":856:869   */\n  mload\n    /* \"#utility.yul\":847:869   */\n  swap1\n  pop\n    /* \"#utility.yul\":878:911   */\n  tag_44\n    /* \"#utility.yul\":905:910   */\n  dup2\n    /* \"#utility.yul\":878:911   */\n  tag_45\n  jump\t// in\ntag_44:\n    /* \"#utility.yul\":774:917   */\n  swap3\n  swap2\n  pop\n  pop\n  jump\t// out\n    /* \"#utility.yul\":940:1325   */\ntag_46:\n    /* \"#utility.yul\":1022:1027   */\n  0x00\n    /* \"#utility.yul\":1071:1074   */\n  dup3\n    /* \"#utility.yul\":1064:1068   */\n  0x1f\n    /* \"#utility.yul\":1056:1062   */\n  dup4\n    /* \"#utility.yul\":1052:1069   */\n  add\n    /* \"#utility.yul\":1048:1075   */\n  slt\n    /* \"#utility.yul\":1038:1160   */\n  tag_48\n  jumpi\n    /* \"#utility.yul\":1079:1158   */\n  tag_49\n  tag_50\n  jump\t// in\ntag_49:\n    /* \"#utility.yul\":1038:1160   */\ntag_48:\n    /* \"#utility.yul\":1189:1195   */\n  dup2\n    /* \"#utility.yul\":1183:1196   */\n  mload\n    /* \"#utility.yul\":1214:1319   */\n  tag_51\n    /* \"#utility.yul\":1315:1318   */\n  dup5\n    /* \"#utility.yul\":1307:1313   */\n  dup3\n    /* \"#utility.yul\":1300:1304   */\n  0x20\n    /* \"#utility.yul\":1292:1298   */\n  dup7\n    /* \"#utility.yul\":1288:1305   */\n  add\n    /* \"#utility.yul\":1214:1319   */\n  tag_29\n  jump\t// in\ntag_51:\n    /* \"#utility.yul\":1205:1319   */\n  swap2\n  pop\n    /* \"#utility.yul\":1028:1325   */\n  pop\n    /* \"#utility.yul\":940:1325   */\n  swap3\n  swap2\n  pop\n  pop\n  jump\t// out\n    /* \"#utility.yul\":1331:1474   */\ntag_52:\n    /* \"#utility.yul\":1388:1393   */\n  0x00\n    /* \"#utility.yul\":1419:1425   */\n  dup2\n    /* \"#utility.yul\":1413:1426   */\n  mload\n    /* \"#utility.yul\":1404:1426   */\n  swap1\n  pop\n    /* \"#utility.yul\":1435:1468   */\n  tag_54\n    /* \"#utility.yul\":1462:1467   */\n  dup2\n    /* \"#utility.yul\":1435:1468   */\n  tag_55\n  jump\t// in\ntag_54:\n    /* \"#utility.yul\":1331:1474   */\n  swap3\n  swap2\n  pop\n  pop\n  jump\t// out\n    /* \"#utility.yul\":1480:2190   */\ntag_3:\n    /* \"#utility.yul\":1584:1590   */\n  0x00\n    /* \"#utility.yul\":1592:1598   */\n  dup1\n    /* \"#utility.yul\":1641:1643   */\n  0x40\n    /* \"#utility.yul\":1629:1638   */\n  dup4\n    /* \"#utility.yul\":1620:1627   */\n  dup6\n    /* \"#utility.yul\":1616:1639   */\n  sub\n    /* \"#utility.yul\":1612:1644   */\n  slt\n    /* \"#utility.yul\":1609:1728   */\n  iszero\n  tag_57\n  jumpi\n    /* \"#utility.yul\":1647:1726   */\n  tag_58\n  tag_59\n  jump\t// in\ntag_58:\n    /* \"#utility.yul\":1609:1728   */\ntag_57:\n    /* \"#utility.yul\":1788:1789   */\n  0x00\n    /* \"#utility.yul\":1777:1786   */\n  dup4\n    /* \"#utility.yul\":1773:1790   */\n  add\n    /* \"#utility.yul\":1767:1791   */\n  mload\n    /* \"#utility.yul\":1818:1836   */\n  0xffffffffffffffff\n    /* \"#utility.yul\":1810:1816   */\n  dup2\n    /* \"#utility.yul\":1807:1837   */\n  gt\n    /* \"#utility.yul\":1804:1921   */\n  iszero\n  tag_60\n  jumpi\n    /* \"#utility.yul\":1840:1919   */\n  tag_61\n  tag_62\n  jump\t// in\ntag_61:\n    /* \"#utility.yul\":1804:1921   */\ntag_60:\n    /* \"#utility.yul\":1945:2034   */\n  tag_63\n    /* \"#utility.yul\":2026:2033   */\n  dup6\n    /* \"#utility.yul\":2017:2023   */\n  dup3\n    /* \"#utility.yul\":2006:2015   */\n  dup7\n    /* \"#utility.yul\":2002:2024   */\n  add\n    /* \"#utility.yul\":1945:2034   */\n  tag_46\n  jump\t// in\ntag_63:\n    /* \"#utility.yul\":1935:2034   */\n  swap3\n  pop\n    /* \"#utility.yul\":1738:2044   */\n  pop\n    /* \"#utility.yul\":2083:2085   */\n  0x20\n    /* \"#utility.yul\":2109:2173   */\n  tag_64\n    /* \"#utility.yul\":2165:2172   */\n  dup6\n    /* \"#utility.yul\":2156:2162   */\n  dup3\n    /* \"#utility.yul\":2145:2154   */\n  dup7\n    /* \"#utility.yul\":2141:2163   */\n  add\n    /* \"#utility.yul\":2109:2173   */\n  tag_52\n  jump\t// in\ntag_64:\n    /* \"#utility.yul\":2099:2173   */\n  swap2\n  pop\n    /* \"#utility.yul\":2054:2183   */\n  pop\n    /* \"#utility.yul\":1480:2190   */\n  swap3\n  pop\n  swap3\n  swap1\n  pop\n  jump\t// out\n    /* \"#utility.yul\":2196:2562   */\ntag_65:\n    /* \"#utility.yul\":2338:2341   */\n  0x00\n    /* \"#utility.yul\":2359:2426   */\n  tag_67\n    /* \"#utility.yul\":2423:2425   */\n  0x26\n    /* \"#utility.yul\":2418:2421   */\n  dup4\n    /* \"#utility.yul\":2359:2426   */\n  tag_68\n  jump\t// in\ntag_67:\n    /* \"#utility.yul\":2352:2426   */\n  swap2\n  pop\n    /* \"#utility.yul\":2435:2528   */\n  tag_69\n    /* \"#utility.yul\":2524:2527   */\n  dup3\n    /* \"#utility.yul\":2435:2528   */\n  tag_70\n  jump\t// in\ntag_69:\n    /* \"#utility.yul\":2553:2555   */\n  0x40\n    /* \"#utility.yul\":2548:2551   */\n  dup3\n    /* \"#utility.yul\":2544:2556   */\n  add\n    /* \"#utility.yul\":2537:2556   */\n  swap1\n  pop\n    /* \"#utility.yul\":2196:2562   */\n  swap2\n  swap1\n  pop\n  jump\t// out\n    /* \"#utility.yul\":2568:2934   */\ntag_71:\n    /* \"#utility.yul\":2710:2713   */\n  0x00\n    /* \"#utility.yul\":2731:2798   */\n  tag_73\n    /* \"#utility.yul\":2795:2797   */\n  0x26\n    /* \"#utility.yul\":2790:2793   */\n  dup4\n    /* \"#utility.yul\":2731:2798   */\n  tag_68\n  jump\t// in\ntag_73:\n    /* \"#utility.yul\":2724:2798   */\n  swap2\n  pop\n    /* \"#utility.yul\":2807:2900   */\n  tag_74\n    /* \"#utility.yul\":2896:2899   */\n  dup3\n    /* \"#utility.yul\":2807:2900   */\n  tag_75\n  jump\t// in\ntag_74:\n    /* \"#utility.yul\":2925:2927   */\n  0x40\n    /* \"#utility.yul\":2920:2923   */\n  dup3\n    /* \"#utility.yul\":2916:2928   */\n  add\n    /* \"#utility.yul\":2909:2928   */\n  swap1\n  pop\n    /* \"#utility.yul\":2568:2934   */\n  swap2\n  swap1\n  pop\n  jump\t// out\n    /* \"#utility.yul\":2940:3306   */\ntag_76:\n    /* \"#utility.yul\":3082:3085   */\n  0x00\n    /* \"#utility.yul\":3103:3170   */\n  tag_78\n    /* \"#utility.yul\":3167:3169   */\n  0x0e\n    /* \"#utility.yul\":3162:3165   */\n  dup4\n    /* \"#utility.yul\":3103:3170   */\n  tag_68\n  jump\t// in\ntag_78:\n    /* \"#utility.yul\":3096:3170   */\n  swap2\n  pop\n    /* \"#utility.yul\":3179:3272   */\n  tag_79\n    /* \"#utility.yul\":3268:3271   */\n  dup3\n    /* \"#utility.yul\":3179:3272   */\n  tag_80\n  jump\t// in\ntag_79:\n    /* \"#utility.yul\":3297:3299   */\n  0x20\n    /* \"#utility.yul\":3292:3295   */\n  dup3\n    /* \"#utility.yul\":3288:3300   */\n  add\n    /* \"#utility.yul\":3281:3300   */\n  swap1\n  pop\n    /* \"#utility.yul\":2940:3306   */\n  swap2\n  swap1\n  pop\n  jump\t// out\n    /* \"#utility.yul\":3312:3731   */\ntag_8:\n    /* \"#utility.yul\":3478:3482   */\n  0x00\n    /* \"#utility.yul\":3516:3518   */\n  0x20\n    /* \"#utility.yul\":3505:3514   */\n  dup3\n    /* \"#utility.yul\":3501:3519   */\n  add\n    /* \"#utility.yul\":3493:3519   */\n  swap1\n  pop\n    /* \"#utility.yul\":3565:3574   */\n  dup2\n    /* \"#utility.yul\":3559:3563   */\n  dup2\n    /* \"#utility.yul\":3555:3575   */\n  sub\n    /* \"#utility.yul\":3551:3552   */\n  0x00\n    /* \"#utility.yul\":3540:3549   */\n  dup4\n    /* \"#utility.yul\":3536:3553   */\n  add\n    /* \"#utility.yul\":3529:3576   */\n  mstore\n    /* \"#utility.yul\":3593:3724   */\n  tag_82\n    /* \"#utility.yul\":3719:3723   */\n  dup2\n    /* \"#utility.yul\":3593:3724   */\n  tag_65\n  jump\t// in\ntag_82:\n    /* \"#utility.yul\":3585:3724   */\n  swap1\n  pop\n    /* \"#utility.yul\":3312:3731   */\n  swap2\n  swap1\n  pop\n  jump\t// out\n    /* \"#utility.yul\":3737:4156   */\ntag_12:\n    /* \"#utility.yul\":3903:3907   */\n  0x00\n    /* \"#utility.yul\":3941:3943   */\n  0x20\n    /* \"#utility.yul\":3930:3939   */\n  dup3\n    /* \"#utility.yul\":3926:3944   */\n  add\n    /* \"#utility.yul\":3918:3944   */\n  swap1\n  pop\n    /* \"#utility.yul\":3990:3999   */\n  dup2\n    /* \"#utility.yul\":3984:3988   */\n  dup2\n    /* \"#utility.yul\":3980:4000   */\n  sub\n    /* \"#utility.yul\":3976:3977   */\n  0x00\n    /* \"#utility.yul\":3965:3974   */\n  dup4\n    /* \"#utility.yul\":3961:3978   */\n  add\n    /* \"#utility.yul\":3954:4001   */\n  mstore\n    /* \"#utility.yul\":4018:4149   */\n  tag_84\n    /* \"#utility.yul\":4144:4148   */\n  dup2\n    /* \"#utility.yul\":4018:4149   */\n  tag_71\n  jump\t// in\ntag_84:\n    /* \"#utility.yul\":4010:4149   */\n  swap1\n  pop\n    /* \"#utility.yul\":3737:4156   */\n  swap2\n  swap1\n  pop\n  jump\t// out\n    /* \"#utility.yul\":4162:4581   */\ntag_21:\n    /* \"#utility.yul\":4328:4332   */\n  0x00\n    /* \"#utility.yul\":4366:4368   */\n  0x20\n    /* \"#utility.yul\":4355:4364   */\n  dup3\n    /* \"#utility.yul\":4351:4369   */\n  add\n    /* \"#utility.yul\":4343:4369   */\n  swap1\n  pop\n    /* \"#utility.yul\":4415:4424   */\n  dup2\n    /* \"#utility.yul\":4409:4413   */\n  dup2\n    /* \"#utility.yul\":4405:4425   */\n  sub\n    /* \"#utility.yul\":4401:4402   */\n  0x00\n    /* \"#utility.yul\":4390:4399   */\n  dup4\n    /* \"#utility.yul\":4386:4403   */\n  add\n    /* \"#utility.yul\":4379:4426   */\n  mstore\n    /* \"#utility.yul\":4443:4574   */\n  tag_86\n    /* \"#utility.yul\":4569:4573   */\n  dup2\n    /* \"#utility.yul\":4443:4574   */\n  tag_76\n  jump\t// in\ntag_86:\n    /* \"#utility.yul\":4435:4574   */\n  swap1\n  pop\n    /* \"#utility.yul\":4162:4581   */\n  swap2\n  swap1\n  pop\n  jump\t// out\n    /* \"#utility.yul\":4587:4716   */\ntag_34:\n    /* \"#utility.yul\":4621:4627   */\n  0x00\n    /* \"#utility.yul\":4648:4668   */\n  tag_88\n  tag_89\n  jump\t// in\ntag_88:\n    /* \"#utility.yul\":4638:4668   */\n  swap1\n  pop\n    /* \"#utility.yul\":4677:4710   */\n  tag_90\n    /* \"#utility.yul\":4705:4709   */\n  dup3\n    /* \"#utility.yul\":4697:4703   */\n  dup3\n    /* \"#utility.yul\":4677:4710   */\n  tag_91\n  jump\t// in\ntag_90:\n    /* \"#utility.yul\":4587:4716   */\n  swap2\n  swap1\n  pop\n  jump\t// out\n    /* \"#utility.yul\":4722:4797   */\ntag_89:\n    /* \"#utility.yul\":4755:4761   */\n  0x00\n    /* \"#utility.yul\":4788:4790   */\n  0x40\n    /* \"#utility.yul\":4782:4791   */\n  mload\n    /* \"#utility.yul\":4772:4791   */\n  swap1\n  pop\n    /* \"#utility.yul\":4722:4797   */\n  swap1\n  jump\t// out\n    /* \"#utility.yul\":4803:5114   */\ntag_33:\n    /* \"#utility.yul\":4880:4884   */\n  0x00\n    /* \"#utility.yul\":4970:4988   */\n  0xffffffffffffffff\n    /* \"#utility.yul\":4962:4968   */\n  dup3\n    /* \"#utility.yul\":4959:4989   */\n  gt\n    /* \"#utility.yul\":4956:5012   */\n  iszero\n  tag_94\n  jumpi\n    /* \"#utility.yul\":4992:5010   */\n  tag_95\n  tag_96\n  jump\t// in\ntag_95:\n    /* \"#utility.yul\":4956:5012   */\ntag_94:\n    /* \"#utility.yul\":5042:5046   */\n  0x20\n    /* \"#utility.yul\":5034:5040   */\n  dup3\n    /* \"#utility.yul\":5030:5047   */\n  mul\n    /* \"#utility.yul\":5022:5047   */\n  swap1\n  pop\n    /* \"#utility.yul\":5102:5106   */\n  0x20\n    /* \"#utility.yul\":5096:5100   */\n  dup2\n    /* \"#utility.yul\":5092:5107   */\n  add\n    /* \"#utility.yul\":5084:5107   */\n  swap1\n  pop\n    /* \"#utility.yul\":4803:5114   */\n  swap2\n  swap1\n  pop\n  jump\t// out\n    /* \"#utility.yul\":5120:5289   */\ntag_68:\n    /* \"#utility.yul\":5204:5215   */\n  0x00\n    /* \"#utility.yul\":5238:5244   */\n  dup3\n    /* \"#utility.yul\":5233:5236   */\n  dup3\n    /* \"#utility.yul\":5226:5245   */\n  mstore\n    /* \"#utility.yul\":5278:5282   */\n  0x20\n    /* \"#utility.yul\":5273:5276   */\n  dup3\n    /* \"#utility.yul\":5269:5283   */\n  add\n    /* \"#utility.yul\":5254:5283   */\n  swap1\n  pop\n    /* \"#utility.yul\":5120:5289   */\n  swap3\n  swap2\n  pop\n  pop\n  jump\t// out\n    /* \"#utility.yul\":5295:5391   */\ntag_98:\n    /* \"#utility.yul\":5332:5339   */\n  0x00\n    /* \"#utility.yul\":5361:5385   */\n  tag_100\n    /* \"#utility.yul\":5379:5384   */\n  dup3\n    /* \"#utility.yul\":5361:5385   */\n  tag_101\n  jump\t// in\ntag_100:\n    /* \"#utility.yul\":5350:5385   */\n  swap1\n  pop\n    /* \"#utility.yul\":5295:5391   */\n  swap2\n  swap1\n  pop\n  jump\t// out\n    /* \"#utility.yul\":5397:5523   */\ntag_101:\n    /* \"#utility.yul\":5434:5441   */\n  0x00\n    /* \"#utility.yul\":5474:5516   */\n  0xffffffffffffffffffffffffffffffffffffffff\n    /* \"#utility.yul\":5467:5472   */\n  dup3\n    /* \"#utility.yul\":5463:5517   */\n  and\n    /* \"#utility.yul\":5452:5517   */\n  swap1\n  pop\n    /* \"#utility.yul\":5397:5523   */\n  swap2\n  swap1\n  pop\n  jump\t// out\n    /* \"#utility.yul\":5529:5606   */\ntag_103:\n    /* \"#utility.yul\":5566:5573   */\n  0x00\n    /* \"#utility.yul\":5595:5600   */\n  dup2\n    /* \"#utility.yul\":5584:5600   */\n  swap1\n  pop\n    /* \"#utility.yul\":5529:5606   */\n  swap2\n  swap1\n  pop\n  jump\t// out\n    /* \"#utility.yul\":5612:5893   */\ntag_91:\n    /* \"#utility.yul\":5695:5722   */\n  tag_106\n    /* \"#utility.yul\":5717:5721   */\n  dup3\n    /* \"#utility.yul\":5695:5722   */\n  tag_107\n  jump\t// in\ntag_106:\n    /* \"#utility.yul\":5687:5693   */\n  dup2\n    /* \"#utility.yul\":5683:5723   */\n  add\n    /* \"#utility.yul\":5825:5831   */\n  dup2\n    /* \"#utility.yul\":5813:5823   */\n  dup2\n    /* \"#utility.yul\":5810:5832   */\n  lt\n    /* \"#utility.yul\":5789:5807   */\n  0xffffffffffffffff\n    /* \"#utility.yul\":5777:5787   */\n  dup3\n    /* \"#utility.yul\":5774:5808   */\n  gt\n    /* \"#utility.yul\":5771:5833   */\n  or\n    /* \"#utility.yul\":5768:5856   */\n  iszero\n  tag_108\n  jumpi\n    /* \"#utility.yul\":5836:5854   */\n  tag_109\n  tag_96\n  jump\t// in\ntag_109:\n    /* \"#utility.yul\":5768:5856   */\ntag_108:\n    /* \"#utility.yul\":5876:5886   */\n  dup1\n    /* \"#utility.yul\":5872:5874   */\n  0x40\n    /* \"#utility.yul\":5865:5887   */\n  mstore\n    /* \"#utility.yul\":5655:5893   */\n  pop\n    /* \"#utility.yul\":5612:5893   */\n  pop\n  pop\n  jump\t// out\n    /* \"#utility.yul\":5899:6132   */\ntag_26:\n    /* \"#utility.yul\":5938:5941   */\n  0x00\n    /* \"#utility.yul\":5961:5985   */\n  tag_111\n    /* \"#utility.yul\":5979:5984   */\n  dup3\n    /* \"#utility.yul\":5961:5985   */\n  tag_103\n  jump\t// in\ntag_111:\n    /* \"#utility.yul\":5952:5985   */\n  swap2\n  pop\n    /* \"#utility.yul\":6007:6073   */\n  0xffffffffffffffffffffffffffffffffffffffffffffffffffffffffffffffff\n    /* \"#utility.yul\":6000:6005   */\n  dup3\n    /* \"#utility.yul\":5997:6074   */\n  eq\n    /* \"#utility.yul\":5994:6097   */\n  iszero\n  tag_112\n  jumpi\n    /* \"#utility.yul\":6077:6095   */\n  tag_113\n  tag_114\n  jump\t// in\ntag_113:\n    /* \"#utility.yul\":5994:6097   */\ntag_112:\n    /* \"#utility.yul\":6124:6125   */\n  0x01\n    /* \"#utility.yul\":6117:6122   */\n  dup3\n    /* \"#utility.yul\":6113:6126   */\n  add\n    /* \"#utility.yul\":6106:6126   */\n  swap1\n  pop\n    /* \"#utility.yul\":5899:6132   */\n  swap2\n  swap1\n  pop\n  jump\t// out\n    /* \"#utility.yul\":6138:6318   */\ntag_114:\n    /* \"#utility.yul\":6186:6263   */\n  0x4e487b7100000000000000000000000000000000000000000000000000000000\n    /* \"#utility.yul\":6183:6184   */\n  0x00\n    /* \"#utility.yul\":6176:6264   */\n  mstore\n    /* \"#utility.yul\":6283:6287   */\n  0x11\n    /* \"#utility.yul\":6280:6281   */\n  0x04\n    /* \"#utility.yul\":6273:6288   */\n  mstore\n    /* \"#utility.yul\":6307:6311   */\n  0x24\n    /* \"#utility.yul\":6304:6305   */\n  0x00\n    /* \"#utility.yul\":6297:6312   */\n  revert\n    /* \"#utility.yul\":6324:6504   */\ntag_18:\n    /* \"#utility.yul\":6372:6449   */\n  0x4e487b7100000000000000000000000000000000000000000000000000000000\n    /* \"#utility.yul\":6369:6370   */\n  0x00\n    /* \"#utility.yul\":6362:6450   */\n  mstore\n    /* \"#utility.yul\":6469:6473   */\n  0x32\n    /* \"#utility.yul\":6466:6467   */\n  0x04\n    /* \"#utility.yul\":6459:6474   */\n  mstore\n    /* \"#utility.yul\":6493:6497   */\n  0x24\n    /* \"#utility.yul\":6490:6491   */\n  0x00\n    /* \"#utility.yul\":6483:6498   */\n  revert\n    /* \"#utility.yul\":6510:6690   */\ntag_96:\n    /* \"#utility.yul\":6558:6635   */\n  0x4e487b7100000000000000000000000000000000000000000000000000000000\n    /* \"#utility.yul\":6555:6556   */\n  0x00\n    /* \"#utility.yul\":6548:6636   */\n  mstore\n    /* \"#utility.yul\":6655:6659   */\n  0x41\n    /* \"#utility.yul\":6652:6653   */\n  0x04\n    /* \"#utility.yul\":6645:6660   */\n  mstore\n    /* \"#utility.yul\":6679:6683   */\n  0x24\n    /* \"#utility.yul\":6676:6677   */\n  0x00\n    /* \"#utility.yul\":6669:6684   */\n  revert\n    /* \"#utility.yul\":6696:6813   */\ntag_50:\n    /* \"#utility.yul\":6805:6806   */\n  0x00\n    /* \"#utility.yul\":6802:6803   */\n  dup1\n    /* \"#utility.yul\":6795:6807   */\n  revert\n    /* \"#utility.yul\":6819:6936   */\ntag_37:\n    /* \"#utility.yul\":6928:6929   */\n  0x00\n    /* \"#utility.yul\":6925:6926   */\n  dup1\n    /* \"#utility.yul\":6918:6930   */\n  revert\n    /* \"#utility.yul\":6942:7059   */\ntag_62:\n    /* \"#utility.yul\":7051:7052   */\n  0x00\n    /* \"#utility.yul\":7048:7049   */\n  dup1\n    /* \"#utility.yul\":7041:7053   */\n  revert\n    /* \"#utility.yul\":7065:7182   */\ntag_59:\n    /* \"#utility.yul\":7174:7175   */\n  0x00\n    /* \"#utility.yul\":7171:7172   */\n  dup1\n    /* \"#utility.yul\":7164:7176   */\n  revert\n    /* \"#utility.yul\":7188:7290   */\ntag_107:\n    /* \"#utility.yul\":7229:7235   */\n  0x00\n    /* \"#utility.yul\":7280:7282   */\n  0x1f\n    /* \"#utility.yul\":7276:7283   */\n  not\n    /* \"#utility.yul\":7271:7273   */\n  0x1f\n    /* \"#utility.yul\":7264:7269   */\n  dup4\n    /* \"#utility.yul\":7260:7274   */\n  add\n    /* \"#utility.yul\":7256:7284   */\n  and\n    /* \"#utility.yul\":7246:7284   */\n  swap1\n  pop\n    /* \"#utility.yul\":7188:7290   */\n  swap2\n  swap1\n  pop\n  jump\t// out\n    /* \"#utility.yul\":7296:7521   */\ntag_70:\n    /* \"#utility.yul\":7436:7470   */\n  0x4f776e657273207265717569726564206d757374206265206772656174657220\n    /* \"#utility.yul\":7432:7433   */\n  0x00\n    /* \"#utility.yul\":7424:7430   */\n  dup3\n    /* \"#utility.yul\":7420:7434   */\n  add\n    /* \"#utility.yul\":7413:7471   */\n  mstore\n    /* \"#utility.yul\":7505:7513   */\n  0x7468616e20310000000000000000000000000000000000000000000000000000\n    /* \"#utility.yul\":7500:7502   */\n  0x20\n    /* \"#utility.yul\":7492:7498   */\n  dup3\n    /* \"#utility.yul\":7488:7503   */\n  add\n    /* \"#utility.yul\":7481:7514   */\n  mstore\n    /* \"#utility.yul\":7296:7521   */\n  pop\n  jump\t// out\n    /* \"#utility.yul\":7527:7752   */\ntag_75:\n    /* \"#utility.yul\":7667:7701   */\n  0x4e756d626572206f6620636f6e6669726d6174696f6e20646f6573206e6f7420\n    /* \"#utility.yul\":7663:7664   */\n  0x00\n    /* \"#utility.yul\":7655:7661   */\n  dup3\n    /* \"#utility.yul\":7651:7665   */\n  add\n    /* \"#utility.yul\":7644:7702   */\n  mstore\n    /* \"#utility.yul\":7736:7744   */\n  0x6d61746368200000000000000000000000000000000000000000000000000000\n    /* \"#utility.yul\":7731:7733   */\n  0x20\n    /* \"#utility.yul\":7723:7729   */\n  dup3\n    /* \"#utility.yul\":7719:7734   */\n  add\n    /* \"#utility.yul\":7712:7745   */\n  mstore\n    /* \"#utility.yul\":7527:7752   */\n  pop\n  jump\t// out\n    /* \"#utility.yul\":7758:7922   */\ntag_80:\n    /* \"#utility.yul\":7898:7914   */\n  0x20496e76616c6964204f776e6572000000000000000000000000000000000000\n    /* \"#utility.yul\":7894:7895   */\n  0x00\n    /* \"#utility.yul\":7886:7892   */\n  dup3\n    /* \"#utility.yul\":7882:7896   */\n  add\n    /* \"#utility.yul\":7875:7915   */\n  mstore\n    /* \"#utility.yul\":7758:7922   */\n  pop\n  jump\t// out\n    /* \"#utility.yul\":7928:8050   */\ntag_45:\n    /* \"#utility.yul\":8001:8025   */\n  tag_127\n    /* \"#utility.yul\":8019:8024   */\n  dup2\n    /* \"#utility.yul\":8001:8025   */\n  tag_98\n  jump\t// in\ntag_127:\n    /* \"#utility.yul\":7994:7999   */\n  dup2\n    /* \"#utility.yul\":7991:8026   */\n  eq\n    /* \"#utility.yul\":7981:8044   */\n  tag_128\n  jumpi\n    /* \"#utility.yul\":8040:8041   */\n  0x00\n    /* \"#utility.yul\":8037:8038   */\n  dup1\n    /* \"#utility.yul\":8030:8042   */\n  revert\n    /* \"#utility.yul\":7981:8044   */\ntag_128:\n    /* \"#utility.yul\":7928:8050   */\n  pop\n  jump\t// out\n    /* \"#utility.yul\":8056:8178   */\ntag_55:\n    /* \"#utility.yul\":8129:8153   */\n  tag_130\n    /* \"#utility.yul\":8147:8152   */\n  dup2\n    /* \"#utility.yul\":8129:8153   */\n  tag_103\n  jump\t// in\ntag_130:\n    /* \"#utility.yul\":8122:8127   */\n  dup2\n    /* \"#utility.yul\":8119:8154   */\n  eq\n    /* \"#utility.yul\":8109:8172   */\n  tag_131\n  jumpi\n    /* \"#utility.yul\":8168:8169   */\n  0x00\n    /* \"#utility.yul\":8165:8166   */\n  dup1\n    /* \"#utility.yul\":8158:8170   */\n  revert\n    /* \"#utility.yul\":8109:8172   */\ntag_131:\n    /* \"#utility.yul\":8056:8178   */\n  pop\n  jump\t// out\n    /* \"contracts/Wallet_distributed.sol\":73:3090  contract Multisig {\r... */\ntag_27:\n  dataSize(sub_0)\n  dup1\n  dataOffset(sub_0)\n  0x00\n  codecopy\n  0x00\n  return\nstop\n\nsub_0: assembly {\n        /* \"contracts/Wallet_distributed.sol\":73:3090  contract Multisig {\r... */\n      mstore(0x40, 0x80)\n      jumpi(tag_1, lt(calldatasize, 0x04))\n      shr(0xe0, calldataload(0x00))\n      dup1\n      0x025e7c27\n      eq\n      tag_2\n      jumpi\n      dup1\n      0x4d18c8f8\n      eq\n      tag_3\n      jumpi\n      dup1\n      0x66d651db\n      eq\n      tag_4\n      jumpi\n      dup1\n      0x79d073e9\n      eq\n      tag_5\n      jumpi\n      dup1\n      0x9ace38c2\n      eq\n      tag_6\n      jumpi\n      dup1\n      0xee22610b\n      eq\n      tag_7\n      jumpi\n    tag_1:\n      0x00\n      dup1\n      revert\n        /* \"contracts/Wallet_distributed.sol\":97:120  address[] public owners */\n    tag_2:\n      callvalue\n      dup1\n      iszero\n      tag_8\n      jumpi\n      0x00\n      dup1\n      revert\n    tag_8:\n      pop\n      tag_9\n      0x04\n      dup1\n      calldatasize\n      sub\n      dup2\n      add\n      swap1\n      tag_10\n      swap2\n      swap1\n      tag_11\n      jump\t// in\n    tag_10:\n      tag_12\n      jump\t// in\n    tag_9:\n      mload(0x40)\n      tag_13\n      swap2\n      swap1\n      tag_14\n      jump\t// in\n    tag_13:\n      mload(0x40)\n      dup1\n      swap2\n      sub\n      swap1\n      return\n        /* \"contracts/Wallet_distributed.sol\":126:156  uint public numconfirmRequired */\n    tag_3:\n      callvalue\n      dup1\n      iszero\n      tag_15\n      jumpi\n      0x00\n      dup1\n      revert\n    tag_15:\n      pop\n      tag_16\n      tag_17\n      jump\t// in\n    tag_16:\n      mload(0x40)\n      tag_18\n      swap2\n      swap1\n      tag_19\n      jump\t// in\n    tag_18:\n      mload(0x40)\n      dup1\n      swap2\n      sub\n      swap1\n      return\n        /* \"contracts/Wallet_distributed.sol\":990:1523  function submitTransaction(address _to) public payable {   // this function only submit the address to whome ether will be transfer, this function does not send ether in real \r... */\n    tag_4:\n      tag_20\n      0x04\n      dup1\n      calldatasize\n      sub\n      dup2\n      add\n      swap1\n      tag_21\n      swap2\n      swap1\n      tag_22\n      jump\t// in\n    tag_21:\n      tag_23\n      jump\t// in\n    tag_20:\n      stop\n        /* \"contracts/Wallet_distributed.sol\":1530:2082  function confiremTransaction(uint _transactionID) public {\r... */\n    tag_5:\n      callvalue\n      dup1\n      iszero\n      tag_24\n      jumpi\n      0x00\n      dup1\n      revert\n    tag_24:\n      pop\n      tag_25\n      0x04\n      dup1\n      calldatasize\n      sub\n      dup2\n      add\n      swap1\n      tag_26\n      swap2\n      swap1\n      tag_11\n      jump\t// in\n    tag_26:\n      tag_27\n      jump\t// in\n    tag_25:\n      stop\n        /* \"contracts/Wallet_distributed.sol\":315:348  Transaction[] public transactions */\n    tag_6:\n      callvalue\n      dup1\n      iszero\n      tag_28\n      jumpi\n      0x00\n      dup1\n      revert\n    tag_28:\n      pop\n      tag_29\n      0x04\n      dup1\n      calldatasize\n      sub\n      dup2\n      add\n      swap1\n      tag_30\n      swap2\n      swap1\n      tag_11\n      jump\t// in\n    tag_30:\n      tag_31\n      jump\t// in\n    tag_29:\n      mload(0x40)\n      tag_32\n      swap4\n      swap3\n      swap2\n      swap1\n      tag_33\n      jump\t// in\n    tag_32:\n      mload(0x40)\n      dup1\n      swap2\n      sub\n      swap1\n      return\n        /* \"contracts/Wallet_distributed.sol\":2088:2637  function executeTransaction(uint _transactionID) public payable {   // private and internal function cannot be payable \r... */\n    tag_7:\n      tag_34\n      0x04\n      dup1\n      calldatasize\n      sub\n      dup2\n      add\n      swap1\n      tag_35\n      swap2\n      swap1\n      tag_11\n      jump\t// in\n    tag_35:\n      tag_36\n      jump\t// in\n    tag_34:\n      stop\n        /* \"contracts/Wallet_distributed.sol\":97:120  address[] public owners */\n    tag_12:\n      0x00\n      dup2\n      dup2\n      sload\n      dup2\n      lt\n      tag_37\n      jumpi\n      0x00\n      dup1\n      revert\n    tag_37:\n      swap1\n      0x00\n      mstore\n      keccak256(0x00, 0x20)\n      add\n      0x00\n      swap2\n      pop\n      sload\n      swap1\n      0x0100\n      exp\n      swap1\n      div\n      0xffffffffffffffffffffffffffffffffffffffff\n      and\n      dup2\n      jump\t// out\n        /* \"contracts/Wallet_distributed.sol\":126:156  uint public numconfirmRequired */\n    tag_17:\n      sload(0x01)\n      dup2\n      jump\t// out\n        /* \"contracts/Wallet_distributed.sol\":990:1523  function submitTransaction(address _to) public payable {   // this function only submit the address to whome ether will be transfer, this function does not send ether in real \r... */\n    tag_23:\n        /* \"contracts/Wallet_distributed.sol\":1197:1198  0 */\n      0x00\n        /* \"contracts/Wallet_distributed.sol\":1184:1199  _to!=address(0) */\n      0xffffffffffffffffffffffffffffffffffffffff\n      and\n        /* \"contracts/Wallet_distributed.sol\":1184:1187  _to */\n      dup2\n        /* \"contracts/Wallet_distributed.sol\":1184:1199  _to!=address(0) */\n      0xffffffffffffffffffffffffffffffffffffffff\n      and\n      eq\n      iszero\n        /* \"contracts/Wallet_distributed.sol\":1176:1228  require(_to!=address(0),\" Invalid receiver address\") */\n      tag_40\n      jumpi\n      mload(0x40)\n      0x08c379a000000000000000000000000000000000000000000000000000000000\n      dup2\n      mstore\n      0x04\n      add\n      tag_41\n      swap1\n      tag_42\n      jump\t// in\n    tag_41:\n      mload(0x40)\n      dup1\n      swap2\n      sub\n      swap1\n      revert\n    tag_40:\n        /* \"contracts/Wallet_distributed.sol\":1256:1257  0 */\n      0x00\n        /* \"contracts/Wallet_distributed.sol\":1246:1255  msg.value */\n      callvalue\n        /* \"contracts/Wallet_distributed.sol\":1246:1257  msg.value>0 */\n      gt\n        /* \"contracts/Wallet_distributed.sol\":1238:1301  require(msg.value>0,\" Transfer amount must be greater then 0 \") */\n      tag_43\n      jumpi\n      mload(0x40)\n      0x08c379a000000000000000000000000000000000000000000000000000000000\n      dup2\n      mstore\n      0x04\n      add\n      tag_44\n      swap1\n      tag_45\n      jump\t// in\n    tag_44:\n      mload(0x40)\n      dup1\n      swap2\n      sub\n      swap1\n      revert\n    tag_43:\n        /* \"contracts/Wallet_distributed.sol\":1313:1331  uint transactionID */\n      0x00\n        /* \"contracts/Wallet_distributed.sol\":1333:1345  transactions */\n      0x03\n        /* \"contracts/Wallet_distributed.sol\":1333:1352  transactions.length */\n      dup1\n      sload\n      swap1\n      pop\n        /* \"contracts/Wallet_distributed.sol\":1313:1352  uint transactionID= transactions.length */\n      swap1\n      pop\n        /* \"contracts/Wallet_distributed.sol\":1362:1374  transactions */\n      0x03\n        /* \"contracts/Wallet_distributed.sol\":1380:1435  Transaction({to:_to, value:msg.value,executed: false }) */\n      mload(0x40)\n      dup1\n      0x60\n      add\n      0x40\n      mstore\n      dup1\n        /* \"contracts/Wallet_distributed.sol\":1396:1399  _to */\n      dup5\n        /* \"contracts/Wallet_distributed.sol\":1380:1435  Transaction({to:_to, value:msg.value,executed: false }) */\n      0xffffffffffffffffffffffffffffffffffffffff\n      and\n      dup2\n      mstore\n      0x20\n      add\n        /* \"contracts/Wallet_distributed.sol\":1407:1416  msg.value */\n      callvalue\n        /* \"contracts/Wallet_distributed.sol\":1380:1435  Transaction({to:_to, value:msg.value,executed: false }) */\n      dup2\n      mstore\n      0x20\n      add\n        /* \"contracts/Wallet_distributed.sol\":1427:1432  false */\n      0x00\n        /* \"contracts/Wallet_distributed.sol\":1380:1435  Transaction({to:_to, value:msg.value,executed: false }) */\n      iszero\n      iszero\n      dup2\n      mstore\n      pop\n        /* \"contracts/Wallet_distributed.sol\":1362:1436  transactions.push(Transaction({to:_to, value:msg.value,executed: false })) */\n      swap1\n      dup1\n      0x01\n      dup2\n      sload\n      add\n      dup1\n      dup3\n      sstore\n      dup1\n      swap2\n      pop\n      pop\n      0x01\n      swap1\n      sub\n      swap1\n      0x00\n      mstore\n      keccak256(0x00, 0x20)\n      swap1\n      0x03\n      mul\n      add\n      0x00\n      swap1\n      swap2\n      swap1\n      swap2\n      swap1\n      swap2\n      pop\n      0x00\n      dup3\n      add\n      mload\n      dup2\n      0x00\n      add\n      exp(0x0100, 0x00)\n      dup2\n      sload\n      dup2\n      0xffffffffffffffffffffffffffffffffffffffff\n      mul\n      not\n      and\n      swap1\n      dup4\n      0xffffffffffffffffffffffffffffffffffffffff\n      and\n      mul\n      or\n      swap1\n      sstore\n      pop\n      0x20\n      dup3\n      add\n      mload\n      dup2\n      0x01\n      add\n      sstore\n      0x40\n      dup3\n      add\n      mload\n      dup2\n      0x02\n      add\n      exp(0x0100, 0x00)\n      dup2\n      sload\n      dup2\n      0xff\n      mul\n      not\n      and\n      swap1\n      dup4\n      iszero\n      iszero\n      mul\n      or\n      swap1\n      sstore\n      pop\n      pop\n      pop\n        /* \"contracts/Wallet_distributed.sol\":1451:1514  Transactionsubmitted( transactionID, msg.sender,_to, msg.value) */\n      0x7e4d38758829c5a4977cf1d9a9431259adb6a2abb60f16e9f63453824be63d00\n        /* \"contracts/Wallet_distributed.sol\":1473:1486  transactionID */\n      dup2\n        /* \"contracts/Wallet_distributed.sol\":1488:1498  msg.sender */\n      caller\n        /* \"contracts/Wallet_distributed.sol\":1499:1502  _to */\n      dup5\n        /* \"contracts/Wallet_distributed.sol\":1504:1513  msg.value */\n      callvalue\n        /* \"contracts/Wallet_distributed.sol\":1451:1514  Transactionsubmitted( transactionID, msg.sender,_to, msg.value) */\n      mload(0x40)\n      tag_47\n      swap5\n      swap4\n      swap3\n      swap2\n      swap1\n      tag_48\n      jump\t// in\n    tag_47:\n      mload(0x40)\n      dup1\n      swap2\n      sub\n      swap1\n      log1\n        /* \"contracts/Wallet_distributed.sol\":1045:1523  {   // this function only submit the address to whome ether will be transfer, this function does not send ether in real \r... */\n      pop\n        /* \"contracts/Wallet_distributed.sol\":990:1523  function submitTransaction(address _to) public payable {   // this function only submit the address to whome ether will be transfer, this function does not send ether in real \r... */\n      pop\n      jump\t// out\n        /* \"contracts/Wallet_distributed.sol\":1530:2082  function confiremTransaction(uint _transactionID) public {\r... */\n    tag_27:\n        /* \"contracts/Wallet_distributed.sol\":1620:1632  transactions */\n      0x03\n        /* \"contracts/Wallet_distributed.sol\":1620:1639  transactions.length */\n      dup1\n      sload\n      swap1\n      pop\n        /* \"contracts/Wallet_distributed.sol\":1605:1619  _transactionID */\n      dup2\n        /* \"contracts/Wallet_distributed.sol\":1605:1639  _transactionID<transactions.length */\n      lt\n        /* \"contracts/Wallet_distributed.sol\":1597:1665  require(_transactionID<transactions.length,\"Invalid transaction ID\") */\n      tag_50\n      jumpi\n      mload(0x40)\n      0x08c379a000000000000000000000000000000000000000000000000000000000\n      dup2\n      mstore\n      0x04\n      add\n      tag_51\n      swap1\n      tag_52\n      jump\t// in\n    tag_51:\n      mload(0x40)\n      dup1\n      swap2\n      sub\n      swap1\n      revert\n    tag_50:\n        /* \"contracts/Wallet_distributed.sol\":1684:1695  isConfirmed */\n      0x02\n        /* \"contracts/Wallet_distributed.sol\":1684:1711  isConfirmed[_transactionID] */\n      0x00\n        /* \"contracts/Wallet_distributed.sol\":1696:1710  _transactionID */\n      dup3\n        /* \"contracts/Wallet_distributed.sol\":1684:1711  isConfirmed[_transactionID] */\n      dup2\n      mstore\n      0x20\n      add\n      swap1\n      dup2\n      mstore\n      0x20\n      add\n      0x00\n      keccak256\n        /* \"contracts/Wallet_distributed.sol\":1684:1723  isConfirmed[_transactionID][msg.sender] */\n      0x00\n        /* \"contracts/Wallet_distributed.sol\":1712:1722  msg.sender */\n      caller\n        /* \"contracts/Wallet_distributed.sol\":1684:1723  isConfirmed[_transactionID][msg.sender] */\n      0xffffffffffffffffffffffffffffffffffffffff\n      and\n      0xffffffffffffffffffffffffffffffffffffffff\n      and\n      dup2\n      mstore\n      0x20\n      add\n      swap1\n      dup2\n      mstore\n      0x20\n      add\n      0x00\n      keccak256\n      0x00\n      swap1\n      sload\n      swap1\n      0x0100\n      exp\n      swap1\n      div\n      0xff\n      and\n        /* \"contracts/Wallet_distributed.sol\":1683:1723  !isConfirmed[_transactionID][msg.sender] */\n      iszero\n        /* \"contracts/Wallet_distributed.sol\":1675:1760  require(!isConfirmed[_transactionID][msg.sender],\" Transaction is already confirmed\") */\n      tag_53\n      jumpi\n      mload(0x40)\n      0x08c379a000000000000000000000000000000000000000000000000000000000\n      dup2\n      mstore\n      0x04\n      add\n      tag_54\n      swap1\n      tag_55\n      jump\t// in\n    tag_54:\n      mload(0x40)\n      dup1\n      swap2\n      sub\n      swap1\n      revert\n    tag_53:\n        /* \"contracts/Wallet_distributed.sol\":1810:1814  true */\n      0x01\n        /* \"contracts/Wallet_distributed.sol\":1770:1781  isConfirmed */\n      0x02\n        /* \"contracts/Wallet_distributed.sol\":1770:1797  isConfirmed[_transactionID] */\n      0x00\n        /* \"contracts/Wallet_distributed.sol\":1782:1796  _transactionID */\n      dup4\n        /* \"contracts/Wallet_distributed.sol\":1770:1797  isConfirmed[_transactionID] */\n      dup2\n      mstore\n      0x20\n      add\n      swap1\n      dup2\n      mstore\n      0x20\n      add\n      0x00\n      keccak256\n        /* \"contracts/Wallet_distributed.sol\":1770:1809  isConfirmed[_transactionID][msg.sender] */\n      0x00\n        /* \"contracts/Wallet_distributed.sol\":1798:1808  msg.sender */\n      caller\n        /* \"contracts/Wallet_distributed.sol\":1770:1809  isConfirmed[_transactionID][msg.sender] */\n      0xffffffffffffffffffffffffffffffffffffffff\n      and\n      0xffffffffffffffffffffffffffffffffffffffff\n      and\n      dup2\n      mstore\n      0x20\n      add\n      swap1\n      dup2\n      mstore\n      0x20\n      add\n      0x00\n      keccak256\n      0x00\n        /* \"contracts/Wallet_distributed.sol\":1770:1814  isConfirmed[_transactionID][msg.sender]=true */\n      0x0100\n      exp\n      dup2\n      sload\n      dup2\n      0xff\n      mul\n      not\n      and\n      swap1\n      dup4\n      iszero\n      iszero\n      mul\n      or\n      swap1\n      sstore\n      pop\n        /* \"contracts/Wallet_distributed.sol\":1918:1954  TransactionConfirmed(_transactionID) */\n      0xef524c298d730e7d5714dbe2fce9d4eca7de755a12628704719170afda39678b\n        /* \"contracts/Wallet_distributed.sol\":1939:1953  _transactionID */\n      dup2\n        /* \"contracts/Wallet_distributed.sol\":1918:1954  TransactionConfirmed(_transactionID) */\n      mload(0x40)\n      tag_56\n      swap2\n      swap1\n      tag_19\n      jump\t// in\n    tag_56:\n      mload(0x40)\n      dup1\n      swap2\n      sub\n      swap1\n      log1\n        /* \"contracts/Wallet_distributed.sol\":1976:2014  isTransactionConfirmed(_transactionID) */\n      tag_57\n        /* \"contracts/Wallet_distributed.sol\":1999:2013  _transactionID */\n      dup2\n        /* \"contracts/Wallet_distributed.sol\":1976:1998  isTransactionConfirmed */\n      tag_58\n        /* \"contracts/Wallet_distributed.sol\":1976:2014  isTransactionConfirmed(_transactionID) */\n      jump\t// in\n    tag_57:\n        /* \"contracts/Wallet_distributed.sol\":1973:2074  if(isTransactionConfirmed(_transactionID)){\r... */\n      iszero\n      tag_59\n      jumpi\n        /* \"contracts/Wallet_distributed.sol\":2029:2063  executeTransaction(_transactionID) */\n      tag_60\n        /* \"contracts/Wallet_distributed.sol\":2048:2062  _transactionID */\n      dup2\n        /* \"contracts/Wallet_distributed.sol\":2029:2047  executeTransaction */\n      tag_36\n        /* \"contracts/Wallet_distributed.sol\":2029:2063  executeTransaction(_transactionID) */\n      jump\t// in\n    tag_60:\n        /* \"contracts/Wallet_distributed.sol\":1973:2074  if(isTransactionConfirmed(_transactionID)){\r... */\n    tag_59:\n        /* \"contracts/Wallet_distributed.sol\":1530:2082  function confiremTransaction(uint _transactionID) public {\r... */\n      pop\n      jump\t// out\n        /* \"contracts/Wallet_distributed.sol\":315:348  Transaction[] public transactions */\n    tag_31:\n      0x03\n      dup2\n      dup2\n      sload\n      dup2\n      lt\n      tag_61\n      jumpi\n      0x00\n      dup1\n      revert\n    tag_61:\n      swap1\n      0x00\n      mstore\n      keccak256(0x00, 0x20)\n      swap1\n      0x03\n      mul\n      add\n      0x00\n      swap2\n      pop\n      swap1\n      pop\n      dup1\n      0x00\n      add\n      0x00\n      swap1\n      sload\n      swap1\n      0x0100\n      exp\n      swap1\n      div\n      0xffffffffffffffffffffffffffffffffffffffff\n      and\n      swap1\n      dup1\n      0x01\n      add\n      sload\n      swap1\n      dup1\n      0x02\n      add\n      0x00\n      swap1\n      sload\n      swap1\n      0x0100\n      exp\n      swap1\n      div\n      0xff\n      and\n      swap1\n      pop\n      dup4\n      jump\t// out\n        /* \"contracts/Wallet_distributed.sol\":2088:2637  function executeTransaction(uint _transactionID) public payable {   // private and internal function cannot be payable \r... */\n    tag_36:\n        /* \"contracts/Wallet_distributed.sol\":2248:2260  transactions */\n      0x03\n        /* \"contracts/Wallet_distributed.sol\":2248:2267  transactions.length */\n      dup1\n      sload\n      swap1\n      pop\n        /* \"contracts/Wallet_distributed.sol\":2233:2247  _transactionID */\n      dup2\n        /* \"contracts/Wallet_distributed.sol\":2233:2267  _transactionID<transactions.length */\n      lt\n        /* \"contracts/Wallet_distributed.sol\":2225:2293  require(_transactionID<transactions.length,\"Invalid Transaction ID\") */\n      tag_64\n      jumpi\n      mload(0x40)\n      0x08c379a000000000000000000000000000000000000000000000000000000000\n      dup2\n      mstore\n      0x04\n      add\n      tag_65\n      swap1\n      tag_66\n      jump\t// in\n    tag_65:\n      mload(0x40)\n      dup1\n      swap2\n      sub\n      swap1\n      revert\n    tag_64:\n        /* \"contracts/Wallet_distributed.sol\":2319:2331  transactions */\n      0x03\n        /* \"contracts/Wallet_distributed.sol\":2332:2346  _transactionID */\n      dup2\n        /* \"contracts/Wallet_distributed.sol\":2319:2347  transactions[_transactionID] */\n      dup2\n      sload\n      dup2\n      lt\n      tag_67\n      jumpi\n      tag_68\n      tag_69\n      jump\t// in\n    tag_68:\n    tag_67:\n      swap1\n      0x00\n      mstore\n      keccak256(0x00, 0x20)\n      swap1\n      0x03\n      mul\n      add\n        /* \"contracts/Wallet_distributed.sol\":2319:2356  transactions[_transactionID].executed */\n      0x02\n      add\n      0x00\n      swap1\n      sload\n      swap1\n      0x0100\n      exp\n      swap1\n      div\n      0xff\n      and\n        /* \"contracts/Wallet_distributed.sol\":2318:2356  !transactions[_transactionID].executed */\n      iszero\n        /* \"contracts/Wallet_distributed.sol\":2310:2392  require(!transactions[_transactionID].executed,\"Transaction is already executed \") */\n      tag_71\n      jumpi\n      mload(0x40)\n      0x08c379a000000000000000000000000000000000000000000000000000000000\n      dup2\n      mstore\n      0x04\n      add\n      tag_72\n      swap1\n      tag_73\n      jump\t// in\n    tag_72:\n      mload(0x40)\n      dup1\n      swap2\n      sub\n      swap1\n      revert\n    tag_71:\n        /* \"contracts/Wallet_distributed.sol\":2409:2421  bool success */\n      0x00\n        /* \"contracts/Wallet_distributed.sol\":2426:2438  transactions */\n      0x03\n        /* \"contracts/Wallet_distributed.sol\":2439:2453  _transactionID */\n      dup3\n        /* \"contracts/Wallet_distributed.sol\":2426:2454  transactions[_transactionID] */\n      dup2\n      sload\n      dup2\n      lt\n      tag_74\n      jumpi\n      tag_75\n      tag_69\n      jump\t// in\n    tag_75:\n    tag_74:\n      swap1\n      0x00\n      mstore\n      keccak256(0x00, 0x20)\n      swap1\n      0x03\n      mul\n      add\n        /* \"contracts/Wallet_distributed.sol\":2426:2457  transactions[_transactionID].to */\n      0x00\n      add\n      0x00\n      swap1\n      sload\n      swap1\n      0x0100\n      exp\n      swap1\n      div\n      0xffffffffffffffffffffffffffffffffffffffff\n      and\n        /* \"contracts/Wallet_distributed.sol\":2426:2462  transactions[_transactionID].to.call */\n      0xffffffffffffffffffffffffffffffffffffffff\n      and\n        /* \"contracts/Wallet_distributed.sol\":2470:2482  transactions */\n      0x03\n        /* \"contracts/Wallet_distributed.sol\":2483:2497  _transactionID */\n      dup4\n        /* \"contracts/Wallet_distributed.sol\":2470:2498  transactions[_transactionID] */\n      dup2\n      sload\n      dup2\n      lt\n      tag_77\n      jumpi\n      tag_78\n      tag_69\n      jump\t// in\n    tag_78:\n    tag_77:\n      swap1\n      0x00\n      mstore\n      keccak256(0x00, 0x20)\n      swap1\n      0x03\n      mul\n      add\n        /* \"contracts/Wallet_distributed.sol\":2470:2504  transactions[_transactionID].value */\n      0x01\n      add\n      sload\n        /* \"contracts/Wallet_distributed.sol\":2426:2509  transactions[_transactionID].to.call{value: transactions[_transactionID].value}(\"\") */\n      mload(0x40)\n      tag_80\n      swap1\n      tag_81\n      jump\t// in\n    tag_80:\n      0x00\n      mload(0x40)\n      dup1\n      dup4\n      sub\n      dup2\n      dup6\n      dup8\n      gas\n      call\n      swap3\n      pop\n      pop\n      pop\n      returndatasize\n      dup1\n      0x00\n      dup2\n      eq\n      tag_84\n      jumpi\n      mload(0x40)\n      swap2\n      pop\n      and(add(returndatasize, 0x3f), not(0x1f))\n      dup3\n      add\n      0x40\n      mstore\n      returndatasize\n      dup3\n      mstore\n      returndatasize\n      0x00\n      0x20\n      dup5\n      add\n      returndatacopy\n      jump(tag_83)\n    tag_84:\n      0x60\n      swap2\n      pop\n    tag_83:\n      pop\n        /* \"contracts/Wallet_distributed.sol\":2408:2509  (bool success,) = transactions[_transactionID].to.call{value: transactions[_transactionID].value}(\"\") */\n      pop\n      swap1\n      pop\n        /* \"contracts/Wallet_distributed.sol\":2534:2541  success */\n      dup1\n        /* \"contracts/Wallet_distributed.sol\":2526:2574  require(success,\"Transaction Execution Failed!\") */\n      tag_85\n      jumpi\n      mload(0x40)\n      0x08c379a000000000000000000000000000000000000000000000000000000000\n      dup2\n      mstore\n      0x04\n      add\n      tag_86\n      swap1\n      tag_87\n      jump\t// in\n    tag_86:\n      mload(0x40)\n      dup1\n      swap2\n      sub\n      swap1\n      revert\n    tag_85:\n        /* \"contracts/Wallet_distributed.sol\":2629:2633  true */\n      0x01\n        /* \"contracts/Wallet_distributed.sol\":2591:2603  transactions */\n      0x03\n        /* \"contracts/Wallet_distributed.sol\":2604:2618  _transactionID */\n      dup4\n        /* \"contracts/Wallet_distributed.sol\":2591:2619  transactions[_transactionID] */\n      dup2\n      sload\n      dup2\n      lt\n      tag_88\n      jumpi\n      tag_89\n      tag_69\n      jump\t// in\n    tag_89:\n    tag_88:\n      swap1\n      0x00\n      mstore\n      keccak256(0x00, 0x20)\n      swap1\n      0x03\n      mul\n      add\n        /* \"contracts/Wallet_distributed.sol\":2591:2628  transactions[_transactionID].executed */\n      0x02\n      add\n      0x00\n        /* \"contracts/Wallet_distributed.sol\":2591:2633  transactions[_transactionID].executed=true */\n      0x0100\n      exp\n      dup2\n      sload\n      dup2\n      0xff\n      mul\n      not\n      and\n      swap1\n      dup4\n      iszero\n      iszero\n      mul\n      or\n      swap1\n      sstore\n      pop\n        /* \"contracts/Wallet_distributed.sol\":2152:2637  {   // private and internal function cannot be payable \r... */\n      pop\n        /* \"contracts/Wallet_distributed.sol\":2088:2637  function executeTransaction(uint _transactionID) public payable {   // private and internal function cannot be payable \r... */\n      pop\n      jump\t// out\n        /* \"contracts/Wallet_distributed.sol\":2646:3085  function isTransactionConfirmed(uint transactionID) internal view returns(bool){\r... */\n    tag_58:\n        /* \"contracts/Wallet_distributed.sol\":2720:2724  bool */\n      0x00\n        /* \"contracts/Wallet_distributed.sol\":2757:2769  transactions */\n      0x03\n        /* \"contracts/Wallet_distributed.sol\":2757:2776  transactions.length */\n      dup1\n      sload\n      swap1\n      pop\n        /* \"contracts/Wallet_distributed.sol\":2743:2756  transactionID */\n      dup3\n        /* \"contracts/Wallet_distributed.sol\":2743:2776  transactionID<transactions.length */\n      lt\n        /* \"contracts/Wallet_distributed.sol\":2735:2803  require(transactionID<transactions.length,\" Invalid transaction ID\") */\n      tag_92\n      jumpi\n      mload(0x40)\n      0x08c379a000000000000000000000000000000000000000000000000000000000\n      dup2\n      mstore\n      0x04\n      add\n      tag_93\n      swap1\n      tag_94\n      jump\t// in\n    tag_93:\n      mload(0x40)\n      dup1\n      swap2\n      sub\n      swap1\n      revert\n    tag_92:\n        /* \"contracts/Wallet_distributed.sol\":2813:2835  uint confirmationCount */\n      0x00\n        /* \"contracts/Wallet_distributed.sol\":2869:2875  uint i */\n      dup1\n        /* \"contracts/Wallet_distributed.sol\":2876:2877  0 */\n      0x00\n        /* \"contracts/Wallet_distributed.sol\":2869:2877  uint i=0 */\n      swap1\n      pop\n        /* \"contracts/Wallet_distributed.sol\":2865:3020  for(uint i=0; i<owners.length;i++){\r... */\n    tag_95:\n        /* \"contracts/Wallet_distributed.sol\":2881:2887  owners */\n      0x00\n        /* \"contracts/Wallet_distributed.sol\":2881:2894  owners.length */\n      dup1\n      sload\n      swap1\n      pop\n        /* \"contracts/Wallet_distributed.sol\":2879:2880  i */\n      dup2\n        /* \"contracts/Wallet_distributed.sol\":2879:2894  i<owners.length */\n      lt\n        /* \"contracts/Wallet_distributed.sol\":2865:3020  for(uint i=0; i<owners.length;i++){\r... */\n      iszero\n      tag_96\n      jumpi\n        /* \"contracts/Wallet_distributed.sol\":2918:2929  isConfirmed */\n      0x02\n        /* \"contracts/Wallet_distributed.sol\":2918:2944  isConfirmed[transactionID] */\n      0x00\n        /* \"contracts/Wallet_distributed.sol\":2930:2943  transactionID */\n      dup6\n        /* \"contracts/Wallet_distributed.sol\":2918:2944  isConfirmed[transactionID] */\n      dup2\n      mstore\n      0x20\n      add\n      swap1\n      dup2\n      mstore\n      0x20\n      add\n      0x00\n      keccak256\n        /* \"contracts/Wallet_distributed.sol\":2918:2955  isConfirmed[transactionID][owners[i]] */\n      0x00\n        /* \"contracts/Wallet_distributed.sol\":2945:2951  owners */\n      dup1\n        /* \"contracts/Wallet_distributed.sol\":2952:2953  i */\n      dup4\n        /* \"contracts/Wallet_distributed.sol\":2945:2954  owners[i] */\n      dup2\n      sload\n      dup2\n      lt\n      tag_98\n      jumpi\n      tag_99\n      tag_69\n      jump\t// in\n    tag_99:\n    tag_98:\n      swap1\n      0x00\n      mstore\n      keccak256(0x00, 0x20)\n      add\n      0x00\n      swap1\n      sload\n      swap1\n      0x0100\n      exp\n      swap1\n      div\n      0xffffffffffffffffffffffffffffffffffffffff\n      and\n        /* \"contracts/Wallet_distributed.sol\":2918:2955  isConfirmed[transactionID][owners[i]] */\n      0xffffffffffffffffffffffffffffffffffffffff\n      and\n      0xffffffffffffffffffffffffffffffffffffffff\n      and\n      dup2\n      mstore\n      0x20\n      add\n      swap1\n      dup2\n      mstore\n      0x20\n      add\n      0x00\n      keccak256\n      0x00\n      swap1\n      sload\n      swap1\n      0x0100\n      exp\n      swap1\n      div\n      0xff\n      and\n        /* \"contracts/Wallet_distributed.sol\":2915:3008  if(isConfirmed[transactionID][owners[i]]){\r... */\n      iszero\n      tag_101\n      jumpi\n        /* \"contracts/Wallet_distributed.sol\":2974:2993  confirmationCount++ */\n      dup2\n      dup1\n      tag_102\n      swap1\n      tag_103\n      jump\t// in\n    tag_102:\n      swap3\n      pop\n      pop\n        /* \"contracts/Wallet_distributed.sol\":2915:3008  if(isConfirmed[transactionID][owners[i]]){\r... */\n    tag_101:\n        /* \"contracts/Wallet_distributed.sol\":2895:2898  i++ */\n      dup1\n      dup1\n      tag_104\n      swap1\n      tag_103\n      jump\t// in\n    tag_104:\n      swap2\n      pop\n      pop\n        /* \"contracts/Wallet_distributed.sol\":2865:3020  for(uint i=0; i<owners.length;i++){\r... */\n      jump(tag_95)\n    tag_96:\n      pop\n        /* \"contracts/Wallet_distributed.sol\":3058:3076  numconfirmRequired */\n      sload(0x01)\n        /* \"contracts/Wallet_distributed.sol\":3038:3055  confirmationCount */\n      dup2\n        /* \"contracts/Wallet_distributed.sol\":3038:3076  confirmationCount>= numconfirmRequired */\n      lt\n      iszero\n        /* \"contracts/Wallet_distributed.sol\":3031:3076  return confirmationCount>= numconfirmRequired */\n      swap2\n      pop\n      pop\n        /* \"contracts/Wallet_distributed.sol\":2646:3085  function isTransactionConfirmed(uint transactionID) internal view returns(bool){\r... */\n      swap2\n      swap1\n      pop\n      jump\t// out\n        /* \"#utility.yul\":7:146   */\n    tag_106:\n        /* \"#utility.yul\":53:58   */\n      0x00\n        /* \"#utility.yul\":91:97   */\n      dup2\n        /* \"#utility.yul\":78:98   */\n      calldataload\n        /* \"#utility.yul\":69:98   */\n      swap1\n      pop\n        /* \"#utility.yul\":107:140   */\n      tag_108\n        /* \"#utility.yul\":134:139   */\n      dup2\n        /* \"#utility.yul\":107:140   */\n      tag_109\n      jump\t// in\n    tag_108:\n        /* \"#utility.yul\":7:146   */\n      swap3\n      swap2\n      pop\n      pop\n      jump\t// out\n        /* \"#utility.yul\":152:291   */\n    tag_110:\n        /* \"#utility.yul\":198:203   */\n      0x00\n        /* \"#utility.yul\":236:242   */\n      dup2\n        /* \"#utility.yul\":223:243   */\n      calldataload\n        /* \"#utility.yul\":214:243   */\n      swap1\n      pop\n        /* \"#utility.yul\":252:285   */\n      tag_112\n        /* \"#utility.yul\":279:284   */\n      dup2\n        /* \"#utility.yul\":252:285   */\n      tag_113\n      jump\t// in\n    tag_112:\n        /* \"#utility.yul\":152:291   */\n      swap3\n      swap2\n      pop\n      pop\n      jump\t// out\n        /* \"#utility.yul\":297:626   */\n    tag_22:\n        /* \"#utility.yul\":356:362   */\n      0x00\n        /* \"#utility.yul\":405:407   */\n      0x20\n        /* \"#utility.yul\":393:402   */\n      dup3\n        /* \"#utility.yul\":384:391   */\n      dup5\n        /* \"#utility.yul\":380:403   */\n      sub\n        /* \"#utility.yul\":376:408   */\n      slt\n        /* \"#utility.yul\":373:492   */\n      iszero\n      tag_115\n      jumpi\n        /* \"#utility.yul\":411:490   */\n      tag_116\n      tag_117\n      jump\t// in\n    tag_116:\n        /* \"#utility.yul\":373:492   */\n    tag_115:\n        /* \"#utility.yul\":531:532   */\n      0x00\n        /* \"#utility.yul\":556:609   */\n      tag_118\n        /* \"#utility.yul\":601:608   */\n      dup5\n        /* \"#utility.yul\":592:598   */\n      dup3\n        /* \"#utility.yul\":581:590   */\n      dup6\n        /* \"#utility.yul\":577:599   */\n      add\n        /* \"#utility.yul\":556:609   */\n      tag_106\n      jump\t// in\n    tag_118:\n        /* \"#utility.yul\":546:609   */\n      swap2\n      pop\n        /* \"#utility.yul\":502:619   */\n      pop\n        /* \"#utility.yul\":297:626   */\n      swap3\n      swap2\n      pop\n      pop\n      jump\t// out\n        /* \"#utility.yul\":632:961   */\n    tag_11:\n        /* \"#utility.yul\":691:697   */\n      0x00\n        /* \"#utility.yul\":740:742   */\n      0x20\n        /* \"#utility.yul\":728:737   */\n      dup3\n        /* \"#utility.yul\":719:726   */\n      dup5\n        /* \"#utility.yul\":715:738   */\n      sub\n        /* \"#utility.yul\":711:743   */\n      slt\n        /* \"#utility.yul\":708:827   */\n      iszero\n      tag_120\n      jumpi\n        /* \"#utility.yul\":746:825   */\n      tag_121\n      tag_117\n      jump\t// in\n    tag_121:\n        /* \"#utility.yul\":708:827   */\n    tag_120:\n        /* \"#utility.yul\":866:867   */\n      0x00\n        /* \"#utility.yul\":891:944   */\n      tag_122\n        /* \"#utility.yul\":936:943   */\n      dup5\n        /* \"#utility.yul\":927:933   */\n      dup3\n        /* \"#utility.yul\":916:925   */\n      dup6\n        /* \"#utility.yul\":912:934   */\n      add\n        /* \"#utility.yul\":891:944   */\n      tag_110\n      jump\t// in\n    tag_122:\n        /* \"#utility.yul\":881:944   */\n      swap2\n      pop\n        /* \"#utility.yul\":837:954   */\n      pop\n        /* \"#utility.yul\":632:961   */\n      swap3\n      swap2\n      pop\n      pop\n      jump\t// out\n        /* \"#utility.yul\":967:1085   */\n    tag_123:\n        /* \"#utility.yul\":1054:1078   */\n      tag_125\n        /* \"#utility.yul\":1072:1077   */\n      dup2\n        /* \"#utility.yul\":1054:1078   */\n      tag_126\n      jump\t// in\n    tag_125:\n        /* \"#utility.yul\":1049:1052   */\n      dup3\n        /* \"#utility.yul\":1042:1079   */\n      mstore\n        /* \"#utility.yul\":967:1085   */\n      pop\n      pop\n      jump\t// out\n        /* \"#utility.yul\":1091:1200   */\n    tag_127:\n        /* \"#utility.yul\":1172:1193   */\n      tag_129\n        /* \"#utility.yul\":1187:1192   */\n      dup2\n        /* \"#utility.yul\":1172:1193   */\n      tag_130\n      jump\t// in\n    tag_129:\n        /* \"#utility.yul\":1167:1170   */\n      dup3\n        /* \"#utility.yul\":1160:1194   */\n      mstore\n        /* \"#utility.yul\":1091:1200   */\n      pop\n      pop\n      jump\t// out\n        /* \"#utility.yul\":1206:1572   */\n    tag_131:\n        /* \"#utility.yul\":1348:1351   */\n      0x00\n        /* \"#utility.yul\":1369:1436   */\n      tag_133\n        /* \"#utility.yul\":1433:1435   */\n      0x28\n        /* \"#utility.yul\":1428:1431   */\n      dup4\n        /* \"#utility.yul\":1369:1436   */\n      tag_134\n      jump\t// in\n    tag_133:\n        /* \"#utility.yul\":1362:1436   */\n      swap2\n      pop\n        /* \"#utility.yul\":1445:1538   */\n      tag_135\n        /* \"#utility.yul\":1534:1537   */\n      dup3\n        /* \"#utility.yul\":1445:1538   */\n      tag_136\n      jump\t// in\n    tag_135:\n        /* \"#utility.yul\":1563:1565   */\n      0x40\n        /* \"#utility.yul\":1558:1561   */\n      dup3\n        /* \"#utility.yul\":1554:1566   */\n      add\n        /* \"#utility.yul\":1547:1566   */\n      swap1\n      pop\n        /* \"#utility.yul\":1206:1572   */\n      swap2\n      swap1\n      pop\n      jump\t// out\n        /* \"#utility.yul\":1578:1944   */\n    tag_137:\n        /* \"#utility.yul\":1720:1723   */\n      0x00\n        /* \"#utility.yul\":1741:1808   */\n      tag_139\n        /* \"#utility.yul\":1805:1807   */\n      0x17\n        /* \"#utility.yul\":1800:1803   */\n      dup4\n        /* \"#utility.yul\":1741:1808   */\n      tag_134\n      jump\t// in\n    tag_139:\n        /* \"#utility.yul\":1734:1808   */\n      swap2\n      pop\n        /* \"#utility.yul\":1817:1910   */\n      tag_140\n        /* \"#utility.yul\":1906:1909   */\n      dup3\n        /* \"#utility.yul\":1817:1910   */\n      tag_141\n      jump\t// in\n    tag_140:\n        /* \"#utility.yul\":1935:1937   */\n      0x20\n        /* \"#utility.yul\":1930:1933   */\n      dup3\n        /* \"#utility.yul\":1926:1938   */\n      add\n        /* \"#utility.yul\":1919:1938   */\n      swap1\n      pop\n        /* \"#utility.yul\":1578:1944   */\n      swap2\n      swap1\n      pop\n      jump\t// out\n        /* \"#utility.yul\":1950:2316   */\n    tag_142:\n        /* \"#utility.yul\":2092:2095   */\n      0x00\n        /* \"#utility.yul\":2113:2180   */\n      tag_144\n        /* \"#utility.yul\":2177:2179   */\n      0x16\n        /* \"#utility.yul\":2172:2175   */\n      dup4\n        /* \"#utility.yul\":2113:2180   */\n      tag_134\n      jump\t// in\n    tag_144:\n        /* \"#utility.yul\":2106:2180   */\n      swap2\n      pop\n        /* \"#utility.yul\":2189:2282   */\n      tag_145\n        /* \"#utility.yul\":2278:2281   */\n      dup3\n        /* \"#utility.yul\":2189:2282   */\n      tag_146\n      jump\t// in\n    tag_145:\n        /* \"#utility.yul\":2307:2309   */\n      0x20\n        /* \"#utility.yul\":2302:2305   */\n      dup3\n        /* \"#utility.yul\":2298:2310   */\n      add\n        /* \"#utility.yul\":2291:2310   */\n      swap1\n      pop\n        /* \"#utility.yul\":1950:2316   */\n      swap2\n      swap1\n      pop\n      jump\t// out\n        /* \"#utility.yul\":2322:2688   */\n    tag_147:\n        /* \"#utility.yul\":2464:2467   */\n      0x00\n        /* \"#utility.yul\":2485:2552   */\n      tag_149\n        /* \"#utility.yul\":2549:2551   */\n      0x19\n        /* \"#utility.yul\":2544:2547   */\n      dup4\n        /* \"#utility.yul\":2485:2552   */\n      tag_134\n      jump\t// in\n    tag_149:\n        /* \"#utility.yul\":2478:2552   */\n      swap2\n      pop\n        /* \"#utility.yul\":2561:2654   */\n      tag_150\n        /* \"#utility.yul\":2650:2653   */\n      dup3\n        /* \"#utility.yul\":2561:2654   */\n      tag_151\n      jump\t// in\n    tag_150:\n        /* \"#utility.yul\":2679:2681   */\n      0x20\n        /* \"#utility.yul\":2674:2677   */\n      dup3\n        /* \"#utility.yul\":2670:2682   */\n      add\n        /* \"#utility.yul\":2663:2682   */\n      swap1\n      pop\n        /* \"#utility.yul\":2322:2688   */\n      swap2\n      swap1\n      pop\n      jump\t// out\n        /* \"#utility.yul\":2694:3060   */\n    tag_152:\n        /* \"#utility.yul\":2836:2839   */\n      0x00\n        /* \"#utility.yul\":2857:2924   */\n      tag_154\n        /* \"#utility.yul\":2921:2923   */\n      0x16\n        /* \"#utility.yul\":2916:2919   */\n      dup4\n        /* \"#utility.yul\":2857:2924   */\n      tag_134\n      jump\t// in\n    tag_154:\n        /* \"#utility.yul\":2850:2924   */\n      swap2\n      pop\n        /* \"#utility.yul\":2933:3026   */\n      tag_155\n        /* \"#utility.yul\":3022:3025   */\n      dup3\n        /* \"#utility.yul\":2933:3026   */\n      tag_156\n      jump\t// in\n    tag_155:\n        /* \"#utility.yul\":3051:3053   */\n      0x20\n        /* \"#utility.yul\":3046:3049   */\n      dup3\n        /* \"#utility.yul\":3042:3054   */\n      add\n        /* \"#utility.yul\":3035:3054   */\n      swap1\n      pop\n        /* \"#utility.yul\":2694:3060   */\n      swap2\n      swap1\n      pop\n      jump\t// out\n        /* \"#utility.yul\":3066:3464   */\n    tag_157:\n        /* \"#utility.yul\":3225:3228   */\n      0x00\n        /* \"#utility.yul\":3246:3329   */\n      tag_159\n        /* \"#utility.yul\":3327:3328   */\n      0x00\n        /* \"#utility.yul\":3322:3325   */\n      dup4\n        /* \"#utility.yul\":3246:3329   */\n      tag_160\n      jump\t// in\n    tag_159:\n        /* \"#utility.yul\":3239:3329   */\n      swap2\n      pop\n        /* \"#utility.yul\":3338:3431   */\n      tag_161\n        /* \"#utility.yul\":3427:3430   */\n      dup3\n        /* \"#utility.yul\":3338:3431   */\n      tag_162\n      jump\t// in\n    tag_161:\n        /* \"#utility.yul\":3456:3457   */\n      0x00\n        /* \"#utility.yul\":3451:3454   */\n      dup3\n        /* \"#utility.yul\":3447:3458   */\n      add\n        /* \"#utility.yul\":3440:3458   */\n      swap1\n      pop\n        /* \"#utility.yul\":3066:3464   */\n      swap2\n      swap1\n      pop\n      jump\t// out\n        /* \"#utility.yul\":3470:3836   */\n    tag_163:\n        /* \"#utility.yul\":3612:3615   */\n      0x00\n        /* \"#utility.yul\":3633:3700   */\n      tag_165\n        /* \"#utility.yul\":3697:3699   */\n      0x20\n        /* \"#utility.yul\":3692:3695   */\n      dup4\n        /* \"#utility.yul\":3633:3700   */\n      tag_134\n      jump\t// in\n    tag_165:\n        /* \"#utility.yul\":3626:3700   */\n      swap2\n      pop\n        /* \"#utility.yul\":3709:3802   */\n      tag_166\n        /* \"#utility.yul\":3798:3801   */\n      dup3\n        /* \"#utility.yul\":3709:3802   */\n      tag_167\n      jump\t// in\n    tag_166:\n        /* \"#utility.yul\":3827:3829   */\n      0x20\n        /* \"#utility.yul\":3822:3825   */\n      dup3\n        /* \"#utility.yul\":3818:3830   */\n      add\n        /* \"#utility.yul\":3811:3830   */\n      swap1\n      pop\n        /* \"#utility.yul\":3470:3836   */\n      swap2\n      swap1\n      pop\n      jump\t// out\n        /* \"#utility.yul\":3842:4208   */\n    tag_168:\n        /* \"#utility.yul\":3984:3987   */\n      0x00\n        /* \"#utility.yul\":4005:4072   */\n      tag_170\n        /* \"#utility.yul\":4069:4071   */\n      0x21\n        /* \"#utility.yul\":4064:4067   */\n      dup4\n        /* \"#utility.yul\":4005:4072   */\n      tag_134\n      jump\t// in\n    tag_170:\n        /* \"#utility.yul\":3998:4072   */\n      swap2\n      pop\n        /* \"#utility.yul\":4081:4174   */\n      tag_171\n        /* \"#utility.yul\":4170:4173   */\n      dup3\n        /* \"#utility.yul\":4081:4174   */\n      tag_172\n      jump\t// in\n    tag_171:\n        /* \"#utility.yul\":4199:4201   */\n      0x40\n        /* \"#utility.yul\":4194:4197   */\n      dup3\n        /* \"#utility.yul\":4190:4202   */\n      add\n        /* \"#utility.yul\":4183:4202   */\n      swap1\n      pop\n        /* \"#utility.yul\":3842:4208   */\n      swap2\n      swap1\n      pop\n      jump\t// out\n        /* \"#utility.yul\":4214:4580   */\n    tag_173:\n        /* \"#utility.yul\":4356:4359   */\n      0x00\n        /* \"#utility.yul\":4377:4444   */\n      tag_175\n        /* \"#utility.yul\":4441:4443   */\n      0x1d\n        /* \"#utility.yul\":4436:4439   */\n      dup4\n        /* \"#utility.yul\":4377:4444   */\n      tag_134\n      jump\t// in\n    tag_175:\n        /* \"#utility.yul\":4370:4444   */\n      swap2\n      pop\n        /* \"#utility.yul\":4453:4546   */\n      tag_176\n        /* \"#utility.yul\":4542:4545   */\n      dup3\n        /* \"#utility.yul\":4453:4546   */\n      tag_177\n      jump\t// in\n    tag_176:\n        /* \"#utility.yul\":4571:4573   */\n      0x20\n        /* \"#utility.yul\":4566:4569   */\n      dup3\n        /* \"#utility.yul\":4562:4574   */\n      add\n        /* \"#utility.yul\":4555:4574   */\n      swap1\n      pop\n        /* \"#utility.yul\":4214:4580   */\n      swap2\n      swap1\n      pop\n      jump\t// out\n        /* \"#utility.yul\":4586:4704   */\n    tag_178:\n        /* \"#utility.yul\":4673:4697   */\n      tag_180\n        /* \"#utility.yul\":4691:4696   */\n      dup2\n        /* \"#utility.yul\":4673:4697   */\n      tag_181\n      jump\t// in\n    tag_180:\n        /* \"#utility.yul\":4668:4671   */\n      dup3\n        /* \"#utility.yul\":4661:4698   */\n      mstore\n        /* \"#utility.yul\":4586:4704   */\n      pop\n      pop\n      jump\t// out\n        /* \"#utility.yul\":4710:5089   */\n    tag_81:\n        /* \"#utility.yul\":4894:4897   */\n      0x00\n        /* \"#utility.yul\":4916:5063   */\n      tag_183\n        /* \"#utility.yul\":5059:5062   */\n      dup3\n        /* \"#utility.yul\":4916:5063   */\n      tag_157\n      jump\t// in\n    tag_183:\n        /* \"#utility.yul\":4909:5063   */\n      swap2\n      pop\n        /* \"#utility.yul\":5080:5083   */\n      dup2\n        /* \"#utility.yul\":5073:5083   */\n      swap1\n      pop\n        /* \"#utility.yul\":4710:5089   */\n      swap2\n      swap1\n      pop\n      jump\t// out\n        /* \"#utility.yul\":5095:5317   */\n    tag_14:\n        /* \"#utility.yul\":5188:5192   */\n      0x00\n        /* \"#utility.yul\":5226:5228   */\n      0x20\n        /* \"#utility.yul\":5215:5224   */\n      dup3\n        /* \"#utility.yul\":5211:5229   */\n      add\n        /* \"#utility.yul\":5203:5229   */\n      swap1\n      pop\n        /* \"#utility.yul\":5239:5310   */\n      tag_185\n        /* \"#utility.yul\":5307:5308   */\n      0x00\n        /* \"#utility.yul\":5296:5305   */\n      dup4\n        /* \"#utility.yul\":5292:5309   */\n      add\n        /* \"#utility.yul\":5283:5289   */\n      dup5\n        /* \"#utility.yul\":5239:5310   */\n      tag_123\n      jump\t// in\n    tag_185:\n        /* \"#utility.yul\":5095:5317   */\n      swap3\n      swap2\n      pop\n      pop\n      jump\t// out\n        /* \"#utility.yul\":5323:5753   */\n    tag_33:\n        /* \"#utility.yul\":5466:5470   */\n      0x00\n        /* \"#utility.yul\":5504:5506   */\n      0x60\n        /* \"#utility.yul\":5493:5502   */\n      dup3\n        /* \"#utility.yul\":5489:5507   */\n      add\n        /* \"#utility.yul\":5481:5507   */\n      swap1\n      pop\n        /* \"#utility.yul\":5517:5588   */\n      tag_187\n        /* \"#utility.yul\":5585:5586   */\n      0x00\n        /* \"#utility.yul\":5574:5583   */\n      dup4\n        /* \"#utility.yul\":5570:5587   */\n      add\n        /* \"#utility.yul\":5561:5567   */\n      dup7\n        /* \"#utility.yul\":5517:5588   */\n      tag_123\n      jump\t// in\n    tag_187:\n        /* \"#utility.yul\":5598:5670   */\n      tag_188\n        /* \"#utility.yul\":5666:5668   */\n      0x20\n        /* \"#utility.yul\":5655:5664   */\n      dup4\n        /* \"#utility.yul\":5651:5669   */\n      add\n        /* \"#utility.yul\":5642:5648   */\n      dup6\n        /* \"#utility.yul\":5598:5670   */\n      tag_178\n      jump\t// in\n    tag_188:\n        /* \"#utility.yul\":5680:5746   */\n      tag_189\n        /* \"#utility.yul\":5742:5744   */\n      0x40\n        /* \"#utility.yul\":5731:5740   */\n      dup4\n        /* \"#utility.yul\":5727:5745   */\n      add\n        /* \"#utility.yul\":5718:5724   */\n      dup5\n        /* \"#utility.yul\":5680:5746   */\n      tag_127\n      jump\t// in\n    tag_189:\n        /* \"#utility.yul\":5323:5753   */\n      swap5\n      swap4\n      pop\n      pop\n      pop\n      pop\n      jump\t// out\n        /* \"#utility.yul\":5759:6178   */\n    tag_45:\n        /* \"#utility.yul\":5925:5929   */\n      0x00\n        /* \"#utility.yul\":5963:5965   */\n      0x20\n        /* \"#utility.yul\":5952:5961   */\n      dup3\n        /* \"#utility.yul\":5948:5966   */\n      add\n        /* \"#utility.yul\":5940:5966   */\n      swap1\n      pop\n        /* \"#utility.yul\":6012:6021   */\n      dup2\n        /* \"#utility.yul\":6006:6010   */\n      dup2\n        /* \"#utility.yul\":6002:6022   */\n      sub\n        /* \"#utility.yul\":5998:5999   */\n      0x00\n        /* \"#utility.yul\":5987:5996   */\n      dup4\n        /* \"#utility.yul\":5983:6000   */\n      add\n        /* \"#utility.yul\":5976:6023   */\n      mstore\n        /* \"#utility.yul\":6040:6171   */\n      tag_191\n        /* \"#utility.yul\":6166:6170   */\n      dup2\n        /* \"#utility.yul\":6040:6171   */\n      tag_131\n      jump\t// in\n    tag_191:\n        /* \"#utility.yul\":6032:6171   */\n      swap1\n      pop\n        /* \"#utility.yul\":5759:6178   */\n      swap2\n      swap1\n      pop\n      jump\t// out\n        /* \"#utility.yul\":6184:6603   */\n    tag_94:\n        /* \"#utility.yul\":6350:6354   */\n      0x00\n        /* \"#utility.yul\":6388:6390   */\n      0x20\n        /* \"#utility.yul\":6377:6386   */\n      dup3\n        /* \"#utility.yul\":6373:6391   */\n      add\n        /* \"#utility.yul\":6365:6391   */\n      swap1\n      pop\n        /* \"#utility.yul\":6437:6446   */\n      dup2\n        /* \"#utility.yul\":6431:6435   */\n      dup2\n        /* \"#utility.yul\":6427:6447   */\n      sub\n        /* \"#utility.yul\":6423:6424   */\n      0x00\n        /* \"#utility.yul\":6412:6421   */\n      dup4\n        /* \"#utility.yul\":6408:6425   */\n      add\n        /* \"#utility.yul\":6401:6448   */\n      mstore\n        /* \"#utility.yul\":6465:6596   */\n      tag_193\n        /* \"#utility.yul\":6591:6595   */\n      dup2\n        /* \"#utility.yul\":6465:6596   */\n      tag_137\n      jump\t// in\n    tag_193:\n        /* \"#utility.yul\":6457:6596   */\n      swap1\n      pop\n        /* \"#utility.yul\":6184:6603   */\n      swap2\n      swap1\n      pop\n      jump\t// out\n        /* \"#utility.yul\":6609:7028   */\n    tag_66:\n        /* \"#utility.yul\":6775:6779   */\n      0x00\n        /* \"#utility.yul\":6813:6815   */\n      0x20\n        /* \"#utility.yul\":6802:6811   */\n      dup3\n        /* \"#utility.yul\":6798:6816   */\n      add\n        /* \"#utility.yul\":6790:6816   */\n      swap1\n      pop\n        /* \"#utility.yul\":6862:6871   */\n      dup2\n        /* \"#utility.yul\":6856:6860   */\n      dup2\n        /* \"#utility.yul\":6852:6872   */\n      sub\n        /* \"#utility.yul\":6848:6849   */\n      0x00\n        /* \"#utility.yul\":6837:6846   */\n      dup4\n        /* \"#utility.yul\":6833:6850   */\n      add\n        /* \"#utility.yul\":6826:6873   */\n      mstore\n        /* \"#utility.yul\":6890:7021   */\n      tag_195\n        /* \"#utility.yul\":7016:7020   */\n      dup2\n        /* \"#utility.yul\":6890:7021   */\n      tag_142\n      jump\t// in\n    tag_195:\n        /* \"#utility.yul\":6882:7021   */\n      swap1\n      pop\n        /* \"#utility.yul\":6609:7028   */\n      swap2\n      swap1\n      pop\n      jump\t// out\n        /* \"#utility.yul\":7034:7453   */\n    tag_42:\n        /* \"#utility.yul\":7200:7204   */\n      0x00\n        /* \"#utility.yul\":7238:7240   */\n      0x20\n        /* \"#utility.yul\":7227:7236   */\n      dup3\n        /* \"#utility.yul\":7223:7241   */\n      add\n        /* \"#utility.yul\":7215:7241   */\n      swap1\n      pop\n        /* \"#utility.yul\":7287:7296   */\n      dup2\n        /* \"#utility.yul\":7281:7285   */\n      dup2\n        /* \"#utility.yul\":7277:7297   */\n      sub\n        /* \"#utility.yul\":7273:7274   */\n      0x00\n        /* \"#utility.yul\":7262:7271   */\n      dup4\n        /* \"#utility.yul\":7258:7275   */\n      add\n        /* \"#utility.yul\":7251:7298   */\n      mstore\n        /* \"#utility.yul\":7315:7446   */\n      tag_197\n        /* \"#utility.yul\":7441:7445   */\n      dup2\n        /* \"#utility.yul\":7315:7446   */\n      tag_147\n      jump\t// in\n    tag_197:\n        /* \"#utility.yul\":7307:7446   */\n      swap1\n      pop\n        /* \"#utility.yul\":7034:7453   */\n      swap2\n      swap1\n      pop\n      jump\t// out\n        /* \"#utility.yul\":7459:7878   */\n    tag_52:\n        /* \"#utility.yul\":7625:7629   */\n      0x00\n        /* \"#utility.yul\":7663:7665   */\n      0x20\n        /* \"#utility.yul\":7652:7661   */\n      dup3\n        /* \"#utility.yul\":7648:7666   */\n      add\n        /* \"#utility.yul\":7640:7666   */\n      swap1\n      pop\n        /* \"#utility.yul\":7712:7721   */\n      dup2\n        /* \"#utility.yul\":7706:7710   */\n      dup2\n        /* \"#utility.yul\":7702:7722   */\n      sub\n        /* \"#utility.yul\":7698:7699   */\n      0x00\n        /* \"#utility.yul\":7687:7696   */\n      dup4\n        /* \"#utility.yul\":7683:7700   */\n      add\n        /* \"#utility.yul\":7676:7723   */\n      mstore\n        /* \"#utility.yul\":7740:7871   */\n      tag_199\n        /* \"#utility.yul\":7866:7870   */\n      dup2\n        /* \"#utility.yul\":7740:7871   */\n      tag_152\n      jump\t// in\n    tag_199:\n        /* \"#utility.yul\":7732:7871   */\n      swap1\n      pop\n        /* \"#utility.yul\":7459:7878   */\n      swap2\n      swap1\n      pop\n      jump\t// out\n        /* \"#utility.yul\":7884:8303   */\n    tag_73:\n        /* \"#utility.yul\":8050:8054   */\n      0x00\n        /* \"#utility.yul\":8088:8090   */\n      0x20\n        /* \"#utility.yul\":8077:8086   */\n      dup3\n        /* \"#utility.yul\":8073:8091   */\n      add\n        /* \"#utility.yul\":8065:8091   */\n      swap1\n      pop\n        /* \"#utility.yul\":8137:8146   */\n      dup2\n        /* \"#utility.yul\":8131:8135   */\n      dup2\n        /* \"#utility.yul\":8127:8147   */\n      sub\n        /* \"#utility.yul\":8123:8124   */\n      0x00\n        /* \"#utility.yul\":8112:8121   */\n      dup4\n        /* \"#utility.yul\":8108:8125   */\n      add\n        /* \"#utility.yul\":8101:8148   */\n      mstore\n        /* \"#utility.yul\":8165:8296   */\n      tag_201\n        /* \"#utility.yul\":8291:8295   */\n      dup2\n        /* \"#utility.yul\":8165:8296   */\n      tag_163\n      jump\t// in\n    tag_201:\n        /* \"#utility.yul\":8157:8296   */\n      swap1\n      pop\n        /* \"#utility.yul\":7884:8303   */\n      swap2\n      swap1\n      pop\n      jump\t// out\n        /* \"#utility.yul\":8309:8728   */\n    tag_55:\n        /* \"#utility.yul\":8475:8479   */\n      0x00\n        /* \"#utility.yul\":8513:8515   */\n      0x20\n        /* \"#utility.yul\":8502:8511   */\n      dup3\n        /* \"#utility.yul\":8498:8516   */\n      add\n        /* \"#utility.yul\":8490:8516   */\n      swap1\n      pop\n        /* \"#utility.yul\":8562:8571   */\n      dup2\n        /* \"#utility.yul\":8556:8560   */\n      dup2\n        /* \"#utility.yul\":8552:8572   */\n      sub\n        /* \"#utility.yul\":8548:8549   */\n      0x00\n        /* \"#utility.yul\":8537:8546   */\n      dup4\n        /* \"#utility.yul\":8533:8550   */\n      add\n        /* \"#utility.yul\":8526:8573   */\n      mstore\n        /* \"#utility.yul\":8590:8721   */\n      tag_203\n        /* \"#utility.yul\":8716:8720   */\n      dup2\n        /* \"#utility.yul\":8590:8721   */\n      tag_168\n      jump\t// in\n    tag_203:\n        /* \"#utility.yul\":8582:8721   */\n      swap1\n      pop\n        /* \"#utility.yul\":8309:8728   */\n      swap2\n      swap1\n      pop\n      jump\t// out\n        /* \"#utility.yul\":8734:9153   */\n    tag_87:\n        /* \"#utility.yul\":8900:8904   */\n      0x00\n        /* \"#utility.yul\":8938:8940   */\n      0x20\n        /* \"#utility.yul\":8927:8936   */\n      dup3\n        /* \"#utility.yul\":8923:8941   */\n      add\n        /* \"#utility.yul\":8915:8941   */\n      swap1\n      pop\n        /* \"#utility.yul\":8987:8996   */\n      dup2\n        /* \"#utility.yul\":8981:8985   */\n      dup2\n        /* \"#utility.yul\":8977:8997   */\n      sub\n        /* \"#utility.yul\":8973:8974   */\n      0x00\n        /* \"#utility.yul\":8962:8971   */\n      dup4\n        /* \"#utility.yul\":8958:8975   */\n      add\n        /* \"#utility.yul\":8951:8998   */\n      mstore\n        /* \"#utility.yul\":9015:9146   */\n      tag_205\n        /* \"#utility.yul\":9141:9145   */\n      dup2\n        /* \"#utility.yul\":9015:9146   */\n      tag_173\n      jump\t// in\n    tag_205:\n        /* \"#utility.yul\":9007:9146   */\n      swap1\n      pop\n        /* \"#utility.yul\":8734:9153   */\n      swap2\n      swap1\n      pop\n      jump\t// out\n        /* \"#utility.yul\":9159:9381   */\n    tag_19:\n        /* \"#utility.yul\":9252:9256   */\n      0x00\n        /* \"#utility.yul\":9290:9292   */\n      0x20\n        /* \"#utility.yul\":9279:9288   */\n      dup3\n        /* \"#utility.yul\":9275:9293   */\n      add\n        /* \"#utility.yul\":9267:9293   */\n      swap1\n      pop\n        /* \"#utility.yul\":9303:9374   */\n      tag_207\n        /* \"#utility.yul\":9371:9372   */\n      0x00\n        /* \"#utility.yul\":9360:9369   */\n      dup4\n        /* \"#utility.yul\":9356:9373   */\n      add\n        /* \"#utility.yul\":9347:9353   */\n      dup5\n        /* \"#utility.yul\":9303:9374   */\n      tag_178\n      jump\t// in\n    tag_207:\n        /* \"#utility.yul\":9159:9381   */\n      swap3\n      swap2\n      pop\n      pop\n      jump\t// out\n        /* \"#utility.yul\":9387:9940   */\n    tag_48:\n        /* \"#utility.yul\":9564:9568   */\n      0x00\n        /* \"#utility.yul\":9602:9605   */\n      0x80\n        /* \"#utility.yul\":9591:9600   */\n      dup3\n        /* \"#utility.yul\":9587:9606   */\n      add\n        /* \"#utility.yul\":9579:9606   */\n      swap1\n      pop\n        /* \"#utility.yul\":9616:9687   */\n      tag_209\n        /* \"#utility.yul\":9684:9685   */\n      0x00\n        /* \"#utility.yul\":9673:9682   */\n      dup4\n        /* \"#utility.yul\":9669:9686   */\n      add\n        /* \"#utility.yul\":9660:9666   */\n      dup8\n        /* \"#utility.yul\":9616:9687   */\n      tag_178\n      jump\t// in\n    tag_209:\n        /* \"#utility.yul\":9697:9769   */\n      tag_210\n        /* \"#utility.yul\":9765:9767   */\n      0x20\n        /* \"#utility.yul\":9754:9763   */\n      dup4\n        /* \"#utility.yul\":9750:9768   */\n      add\n        /* \"#utility.yul\":9741:9747   */\n      dup7\n        /* \"#utility.yul\":9697:9769   */\n      tag_123\n      jump\t// in\n    tag_210:\n        /* \"#utility.yul\":9779:9851   */\n      tag_211\n        /* \"#utility.yul\":9847:9849   */\n      0x40\n        /* \"#utility.yul\":9836:9845   */\n      dup4\n        /* \"#utility.yul\":9832:9850   */\n      add\n        /* \"#utility.yul\":9823:9829   */\n      dup6\n        /* \"#utility.yul\":9779:9851   */\n      tag_123\n      jump\t// in\n    tag_211:\n        /* \"#utility.yul\":9861:9933   */\n      tag_212\n        /* \"#utility.yul\":9929:9931   */\n      0x60\n        /* \"#utility.yul\":9918:9927   */\n      dup4\n        /* \"#utility.yul\":9914:9932   */\n      add\n        /* \"#utility.yul\":9905:9911   */\n      dup5\n        /* \"#utility.yul\":9861:9933   */\n      tag_178\n      jump\t// in\n    tag_212:\n        /* \"#utility.yul\":9387:9940   */\n      swap6\n      swap5\n      pop\n      pop\n      pop\n      pop\n      pop\n      jump\t// out\n        /* \"#utility.yul\":10027:10174   */\n    tag_160:\n        /* \"#utility.yul\":10128:10139   */\n      0x00\n        /* \"#utility.yul\":10165:10168   */\n      dup2\n        /* \"#utility.yul\":10150:10168   */\n      swap1\n      pop\n        /* \"#utility.yul\":10027:10174   */\n      swap3\n      swap2\n      pop\n      pop\n      jump\t// out\n        /* \"#utility.yul\":10180:10349   */\n    tag_134:\n        /* \"#utility.yul\":10264:10275   */\n      0x00\n        /* \"#utility.yul\":10298:10304   */\n      dup3\n        /* \"#utility.yul\":10293:10296   */\n      dup3\n        /* \"#utility.yul\":10286:10305   */\n      mstore\n        /* \"#utility.yul\":10338:10342   */\n      0x20\n        /* \"#utility.yul\":10333:10336   */\n      dup3\n        /* \"#utility.yul\":10329:10343   */\n      add\n        /* \"#utility.yul\":10314:10343   */\n      swap1\n      pop\n        /* \"#utility.yul\":10180:10349   */\n      swap3\n      swap2\n      pop\n      pop\n      jump\t// out\n        /* \"#utility.yul\":10355:10451   */\n    tag_126:\n        /* \"#utility.yul\":10392:10399   */\n      0x00\n        /* \"#utility.yul\":10421:10445   */\n      tag_218\n        /* \"#utility.yul\":10439:10444   */\n      dup3\n        /* \"#utility.yul\":10421:10445   */\n      tag_219\n      jump\t// in\n    tag_218:\n        /* \"#utility.yul\":10410:10445   */\n      swap1\n      pop\n        /* \"#utility.yul\":10355:10451   */\n      swap2\n      swap1\n      pop\n      jump\t// out\n        /* \"#utility.yul\":10457:10547   */\n    tag_130:\n        /* \"#utility.yul\":10491:10498   */\n      0x00\n        /* \"#utility.yul\":10534:10539   */\n      dup2\n        /* \"#utility.yul\":10527:10540   */\n      iszero\n        /* \"#utility.yul\":10520:10541   */\n      iszero\n        /* \"#utility.yul\":10509:10541   */\n      swap1\n      pop\n        /* \"#utility.yul\":10457:10547   */\n      swap2\n      swap1\n      pop\n      jump\t// out\n        /* \"#utility.yul\":10553:10679   */\n    tag_219:\n        /* \"#utility.yul\":10590:10597   */\n      0x00\n        /* \"#utility.yul\":10630:10672   */\n      0xffffffffffffffffffffffffffffffffffffffff\n        /* \"#utility.yul\":10623:10628   */\n      dup3\n        /* \"#utility.yul\":10619:10673   */\n      and\n        /* \"#utility.yul\":10608:10673   */\n      swap1\n      pop\n        /* \"#utility.yul\":10553:10679   */\n      swap2\n      swap1\n      pop\n      jump\t// out\n        /* \"#utility.yul\":10685:10762   */\n    tag_181:\n        /* \"#utility.yul\":10722:10729   */\n      0x00\n        /* \"#utility.yul\":10751:10756   */\n      dup2\n        /* \"#utility.yul\":10740:10756   */\n      swap1\n      pop\n        /* \"#utility.yul\":10685:10762   */\n      swap2\n      swap1\n      pop\n      jump\t// out\n        /* \"#utility.yul\":10768:11001   */\n    tag_103:\n        /* \"#utility.yul\":10807:10810   */\n      0x00\n        /* \"#utility.yul\":10830:10854   */\n      tag_224\n        /* \"#utility.yul\":10848:10853   */\n      dup3\n        /* \"#utility.yul\":10830:10854   */\n      tag_181\n      jump\t// in\n    tag_224:\n        /* \"#utility.yul\":10821:10854   */\n      swap2\n      pop\n        /* \"#utility.yul\":10876:10942   */\n      0xffffffffffffffffffffffffffffffffffffffffffffffffffffffffffffffff\n        /* \"#utility.yul\":10869:10874   */\n      dup3\n        /* \"#utility.yul\":10866:10943   */\n      eq\n        /* \"#utility.yul\":10863:10966   */\n      iszero\n      tag_225\n      jumpi\n        /* \"#utility.yul\":10946:10964   */\n      tag_226\n      tag_227\n      jump\t// in\n    tag_226:\n        /* \"#utility.yul\":10863:10966   */\n    tag_225:\n        /* \"#utility.yul\":10993:10994   */\n      0x01\n        /* \"#utility.yul\":10986:10991   */\n      dup3\n        /* \"#utility.yul\":10982:10995   */\n      add\n        /* \"#utility.yul\":10975:10995   */\n      swap1\n      pop\n        /* \"#utility.yul\":10768:11001   */\n      swap2\n      swap1\n      pop\n      jump\t// out\n        /* \"#utility.yul\":11007:11187   */\n    tag_227:\n        /* \"#utility.yul\":11055:11132   */\n      0x4e487b7100000000000000000000000000000000000000000000000000000000\n        /* \"#utility.yul\":11052:11053   */\n      0x00\n        /* \"#utility.yul\":11045:11133   */\n      mstore\n        /* \"#utility.yul\":11152:11156   */\n      0x11\n        /* \"#utility.yul\":11149:11150   */\n      0x04\n        /* \"#utility.yul\":11142:11157   */\n      mstore\n        /* \"#utility.yul\":11176:11180   */\n      0x24\n        /* \"#utility.yul\":11173:11174   */\n      0x00\n        /* \"#utility.yul\":11166:11181   */\n      revert\n        /* \"#utility.yul\":11193:11373   */\n    tag_69:\n        /* \"#utility.yul\":11241:11318   */\n      0x4e487b7100000000000000000000000000000000000000000000000000000000\n        /* \"#utility.yul\":11238:11239   */\n      0x00\n        /* \"#utility.yul\":11231:11319   */\n      mstore\n        /* \"#utility.yul\":11338:11342   */\n      0x32\n        /* \"#utility.yul\":11335:11336   */\n      0x04\n        /* \"#utility.yul\":11328:11343   */\n      mstore\n        /* \"#utility.yul\":11362:11366   */\n      0x24\n        /* \"#utility.yul\":11359:11360   */\n      0x00\n        /* \"#utility.yul\":11352:11367   */\n      revert\n        /* \"#utility.yul\":11502:11619   */\n    tag_117:\n        /* \"#utility.yul\":11611:11612   */\n      0x00\n        /* \"#utility.yul\":11608:11609   */\n      dup1\n        /* \"#utility.yul\":11601:11613   */\n      revert\n        /* \"#utility.yul\":11625:11852   */\n    tag_136:\n        /* \"#utility.yul\":11765:11799   */\n      0x205472616e7366657220616d6f756e74206d7573742062652067726561746572\n        /* \"#utility.yul\":11761:11762   */\n      0x00\n        /* \"#utility.yul\":11753:11759   */\n      dup3\n        /* \"#utility.yul\":11749:11763   */\n      add\n        /* \"#utility.yul\":11742:11800   */\n      mstore\n        /* \"#utility.yul\":11834:11844   */\n      0x207468656e203020000000000000000000000000000000000000000000000000\n        /* \"#utility.yul\":11829:11831   */\n      0x20\n        /* \"#utility.yul\":11821:11827   */\n      dup3\n        /* \"#utility.yul\":11817:11832   */\n      add\n        /* \"#utility.yul\":11810:11845   */\n      mstore\n        /* \"#utility.yul\":11625:11852   */\n      pop\n      jump\t// out\n        /* \"#utility.yul\":11858:12031   */\n    tag_141:\n        /* \"#utility.yul\":11998:12023   */\n      0x20496e76616c6964207472616e73616374696f6e204944000000000000000000\n        /* \"#utility.yul\":11994:11995   */\n      0x00\n        /* \"#utility.yul\":11986:11992   */\n      dup3\n        /* \"#utility.yul\":11982:11996   */\n      add\n        /* \"#utility.yul\":11975:12024   */\n      mstore\n        /* \"#utility.yul\":11858:12031   */\n      pop\n      jump\t// out\n        /* \"#utility.yul\":12037:12209   */\n    tag_146:\n        /* \"#utility.yul\":12177:12201   */\n      0x496e76616c6964205472616e73616374696f6e20494400000000000000000000\n        /* \"#utility.yul\":12173:12174   */\n      0x00\n        /* \"#utility.yul\":12165:12171   */\n      dup3\n        /* \"#utility.yul\":12161:12175   */\n      add\n        /* \"#utility.yul\":12154:12202   */\n      mstore\n        /* \"#utility.yul\":12037:12209   */\n      pop\n      jump\t// out\n        /* \"#utility.yul\":12215:12390   */\n    tag_151:\n        /* \"#utility.yul\":12355:12382   */\n      0x20496e76616c6964207265636569766572206164647265737300000000000000\n        /* \"#utility.yul\":12351:12352   */\n      0x00\n        /* \"#utility.yul\":12343:12349   */\n      dup3\n        /* \"#utility.yul\":12339:12353   */\n      add\n        /* \"#utility.yul\":12332:12383   */\n      mstore\n        /* \"#utility.yul\":12215:12390   */\n      pop\n      jump\t// out\n        /* \"#utility.yul\":12396:12568   */\n    tag_156:\n        /* \"#utility.yul\":12536:12560   */\n      0x496e76616c6964207472616e73616374696f6e20494400000000000000000000\n        /* \"#utility.yul\":12532:12533   */\n      0x00\n        /* \"#utility.yul\":12524:12530   */\n      dup3\n        /* \"#utility.yul\":12520:12534   */\n      add\n        /* \"#utility.yul\":12513:12561   */\n      mstore\n        /* \"#utility.yul\":12396:12568   */\n      pop\n      jump\t// out\n        /* \"#utility.yul\":12574:12688   */\n    tag_162:\n      pop\n      jump\t// out\n        /* \"#utility.yul\":12694:12876   */\n    tag_167:\n        /* \"#utility.yul\":12834:12868   */\n      0x5472616e73616374696f6e20697320616c726561647920657865637574656420\n        /* \"#utility.yul\":12830:12831   */\n      0x00\n        /* \"#utility.yul\":12822:12828   */\n      dup3\n        /* \"#utility.yul\":12818:12832   */\n      add\n        /* \"#utility.yul\":12811:12869   */\n      mstore\n        /* \"#utility.yul\":12694:12876   */\n      pop\n      jump\t// out\n        /* \"#utility.yul\":12882:13102   */\n    tag_172:\n        /* \"#utility.yul\":13022:13056   */\n      0x205472616e73616374696f6e20697320616c726561647920636f6e6669726d65\n        /* \"#utility.yul\":13018:13019   */\n      0x00\n        /* \"#utility.yul\":13010:13016   */\n      dup3\n        /* \"#utility.yul\":13006:13020   */\n      add\n        /* \"#utility.yul\":12999:13057   */\n      mstore\n        /* \"#utility.yul\":13091:13094   */\n      0x6400000000000000000000000000000000000000000000000000000000000000\n        /* \"#utility.yul\":13086:13088   */\n      0x20\n        /* \"#utility.yul\":13078:13084   */\n      dup3\n        /* \"#utility.yul\":13074:13089   */\n      add\n        /* \"#utility.yul\":13067:13095   */\n      mstore\n        /* \"#utility.yul\":12882:13102   */\n      pop\n      jump\t// out\n        /* \"#utility.yul\":13108:13287   */\n    tag_177:\n        /* \"#utility.yul\":13248:13279   */\n      0x5472616e73616374696f6e20457865637574696f6e204661696c656421000000\n        /* \"#utility.yul\":13244:13245   */\n      0x00\n        /* \"#utility.yul\":13236:13242   */\n      dup3\n        /* \"#utility.yul\":13232:13246   */\n      add\n        /* \"#utility.yul\":13225:13280   */\n      mstore\n        /* \"#utility.yul\":13108:13287   */\n      pop\n      jump\t// out\n        /* \"#utility.yul\":13293:13415   */\n    tag_109:\n        /* \"#utility.yul\":13366:13390   */\n      tag_243\n        /* \"#utility.yul\":13384:13389   */\n      dup2\n        /* \"#utility.yul\":13366:13390   */\n      tag_126\n      jump\t// in\n    tag_243:\n        /* \"#utility.yul\":13359:13364   */\n      dup2\n        /* \"#utility.yul\":13356:13391   */\n      eq\n        /* \"#utility.yul\":13346:13409   */\n      tag_244\n      jumpi\n        /* \"#utility.yul\":13405:13406   */\n      0x00\n        /* \"#utility.yul\":13402:13403   */\n      dup1\n        /* \"#utility.yul\":13395:13407   */\n      revert\n        /* \"#utility.yul\":13346:13409   */\n    tag_244:\n        /* \"#utility.yul\":13293:13415   */\n      pop\n      jump\t// out\n        /* \"#utility.yul\":13421:13543   */\n    tag_113:\n        /* \"#utility.yul\":13494:13518   */\n      tag_246\n        /* \"#utility.yul\":13512:13517   */\n      dup2\n        /* \"#utility.yul\":13494:13518   */\n      tag_181\n      jump\t// in\n    tag_246:\n        /* \"#utility.yul\":13487:13492   */\n      dup2\n        /* \"#utility.yul\":13484:13519   */\n      eq\n        /* \"#utility.yul\":13474:13537   */\n      tag_247\n      jumpi\n        /* \"#utility.yul\":13533:13534   */\n      0x00\n        /* \"#utility.yul\":13530:13531   */\n      dup1\n        /* \"#utility.yul\":13523:13535   */\n      revert\n        /* \"#utility.yul\":13474:13537   */\n    tag_247:\n        /* \"#utility.yul\":13421:13543   */\n      pop\n      jump\t// out\n\n    auxdata: 0xa2646970667358221220c54999f0c24339a271e38218d4da2613fb8a6352f9e9a9613af8f2785b4c8a2d64736f6c63430008070033\n}\n",
				"bytecode": {
					"linkReferences": {},
					"object": "60806040523480156200001157600080fd5b5060405162001699380380620016998339818101604052810190620000379190620002f3565b60018251116200007e576040517f08c379a00000000000000000000000000000000000000000000000000000000081526004016200007590620003ce565b60405180910390fd5b600081118015620000925750815160015411155b620000d4576040517f08c379a0000000000000000000000000000000000000000000000000000000008152600401620000cb90620003f0565b60405180910390fd5b60005b82518110156200020757600073ffffffffffffffffffffffffffffffffffffffff168382815181106200010f576200010e6200058e565b5b602002602001015173ffffffffffffffffffffffffffffffffffffffff16141562000171576040517f08c379a0000000000000000000000000000000000000000000000000000000008152600401620001689062000412565b60405180910390fd5b60008382815181106200018957620001886200058e565b5b60200260200101519080600181540180825580915050600190039060005260206000200160009091909190916101000a81548173ffffffffffffffffffffffffffffffffffffffff021916908373ffffffffffffffffffffffffffffffffffffffff1602179055508080620001fe9062000511565b915050620000d7565b508060018190555050506200070c565b60006200022e62000228846200045d565b62000434565b90508083825260208201905082856020860282011115620002545762000253620005f1565b5b60005b858110156200028857816200026d888262000292565b84526020840193506020830192505060018101905062000257565b5050509392505050565b600081519050620002a381620006d8565b92915050565b600082601f830112620002c157620002c0620005ec565b5b8151620002d384826020860162000217565b91505092915050565b600081519050620002ed81620006f2565b92915050565b600080604083850312156200030d576200030c620005fb565b5b600083015167ffffffffffffffff8111156200032e576200032d620005f6565b5b6200033c85828601620002a9565b92505060206200034f85828601620002dc565b9150509250929050565b6000620003686026836200048c565b9150620003758262000611565b604082019050919050565b60006200038f6026836200048c565b91506200039c8262000660565b604082019050919050565b6000620003b6600e836200048c565b9150620003c382620006af565b602082019050919050565b60006020820190508181036000830152620003e98162000359565b9050919050565b600060208201905081810360008301526200040b8162000380565b9050919050565b600060208201905081810360008301526200042d81620003a7565b9050919050565b60006200044062000453565b90506200044e8282620004db565b919050565b6000604051905090565b600067ffffffffffffffff8211156200047b576200047a620005bd565b5b602082029050602081019050919050565b600082825260208201905092915050565b6000620004aa82620004b1565b9050919050565b600073ffffffffffffffffffffffffffffffffffffffff82169050919050565b6000819050919050565b620004e68262000600565b810181811067ffffffffffffffff82111715620005085762000507620005bd565b5b80604052505050565b60006200051e82620004d1565b91507fffffffffffffffffffffffffffffffffffffffffffffffffffffffffffffffff8214156200055457620005536200055f565b5b600182019050919050565b7f4e487b7100000000000000000000000000000000000000000000000000000000600052601160045260246000fd5b7f4e487b7100000000000000000000000000000000000000000000000000000000600052603260045260246000fd5b7f4e487b7100000000000000000000000000000000000000000000000000000000600052604160045260246000fd5b600080fd5b600080fd5b600080fd5b600080fd5b6000601f19601f8301169050919050565b7f4f776e657273207265717569726564206d75737420626520677265617465722060008201527f7468616e20310000000000000000000000000000000000000000000000000000602082015250565b7f4e756d626572206f6620636f6e6669726d6174696f6e20646f6573206e6f742060008201527f6d61746368200000000000000000000000000000000000000000000000000000602082015250565b7f20496e76616c6964204f776e6572000000000000000000000000000000000000600082015250565b620006e3816200049d565b8114620006ef57600080fd5b50565b620006fd81620004d1565b81146200070957600080fd5b50565b610f7d806200071c6000396000f3fe6080604052600436106100555760003560e01c8063025e7c271461005a5780634d18c8f81461009757806366d651db146100c257806379d073e9146100de5780639ace38c214610107578063ee22610b14610146575b600080fd5b34801561006657600080fd5b50610081600480360381019061007c9190610916565b610162565b60405161008e9190610ac0565b60405180910390f35b3480156100a357600080fd5b506100ac6101a1565b6040516100b99190610c12565b60405180910390f35b6100dc60048036038101906100d791906108e9565b6101a7565b005b3480156100ea57600080fd5b5061010560048036038101906101009190610916565b610377565b005b34801561011357600080fd5b5061012e60048036038101906101299190610916565b610517565b60405161013d93929190610adb565b60405180910390f35b610160600480360381019061015b9190610916565b61057e565b005b6000818154811061017257600080fd5b906000526020600020016000915054906101000a900473ffffffffffffffffffffffffffffffffffffffff1681565b60015481565b600073ffffffffffffffffffffffffffffffffffffffff168173ffffffffffffffffffffffffffffffffffffffff161415610217576040517f08c379a000000000000000000000000000000000000000000000000000000000815260040161020e90610b72565b60405180910390fd5b6000341161025a576040517f08c379a000000000000000000000000000000000000000000000000000000000815260040161025190610b12565b60405180910390fd5b60006003805490509050600360405180606001604052808473ffffffffffffffffffffffffffffffffffffffff16815260200134815260200160001515815250908060018154018082558091505060019003906000526020600020906003020160009091909190915060008201518160000160006101000a81548173ffffffffffffffffffffffffffffffffffffffff021916908373ffffffffffffffffffffffffffffffffffffffff1602179055506020820151816001015560408201518160020160006101000a81548160ff02191690831515021790555050507f7e4d38758829c5a4977cf1d9a9431259adb6a2abb60f16e9f63453824be63d008133843460405161036b9493929190610c2d565b60405180910390a15050565b60038054905081106103be576040517f08c379a00000000000000000000000000000000000000000000000000000000081526004016103b590610b92565b60405180910390fd5b6002600082815260200190815260200160002060003373ffffffffffffffffffffffffffffffffffffffff1673ffffffffffffffffffffffffffffffffffffffff16815260200190815260200160002060009054906101000a900460ff161561045c576040517f08c379a000000000000000000000000000000000000000000000000000000000815260040161045390610bd2565b60405180910390fd5b60016002600083815260200190815260200160002060003373ffffffffffffffffffffffffffffffffffffffff1673ffffffffffffffffffffffffffffffffffffffff16815260200190815260200160002060006101000a81548160ff0219169083151502179055507fef524c298d730e7d5714dbe2fce9d4eca7de755a12628704719170afda39678b816040516104f49190610c12565b60405180910390a161050581610790565b15610514576105138161057e565b5b50565b6003818154811061052757600080fd5b90600052602060002090600302016000915090508060000160009054906101000a900473ffffffffffffffffffffffffffffffffffffffff16908060010154908060020160009054906101000a900460ff16905083565b60038054905081106105c5576040517f08c379a00000000000000000000000000000000000000000000000000000000081526004016105bc90610b52565b60405180910390fd5b600381815481106105d9576105d8610d4e565b5b906000526020600020906003020160020160009054906101000a900460ff1615610638576040517f08c379a000000000000000000000000000000000000000000000000000000000815260040161062f90610bb2565b60405180910390fd5b60006003828154811061064e5761064d610d4e565b5b906000526020600020906003020160000160009054906101000a900473ffffffffffffffffffffffffffffffffffffffff1673ffffffffffffffffffffffffffffffffffffffff16600383815481106106aa576106a9610d4e565b5b9060005260206000209060030201600101546040516106c890610aab565b60006040518083038185875af1925050503d8060008114610705576040519150601f19603f3d011682016040523d82523d6000602084013e61070a565b606091505b505090508061074e576040517f08c379a000000000000000000000000000000000000000000000000000000000815260040161074590610bf2565b60405180910390fd5b60016003838154811061076457610763610d4e565b5b906000526020600020906003020160020160006101000a81548160ff0219169083151502179055505050565b600060038054905082106107d9576040517f08c379a00000000000000000000000000000000000000000000000000000000081526004016107d090610b32565b60405180910390fd5b600080600090505b6000805490508110156108b05760026000858152602001908152602001600020600080838154811061081657610815610d4e565b5b9060005260206000200160009054906101000a900473ffffffffffffffffffffffffffffffffffffffff1673ffffffffffffffffffffffffffffffffffffffff1673ffffffffffffffffffffffffffffffffffffffff16815260200190815260200160002060009054906101000a900460ff161561089d57818061089990610cd6565b9250505b80806108a890610cd6565b9150506107e1565b50600154811015915050919050565b6000813590506108ce81610f19565b92915050565b6000813590506108e381610f30565b92915050565b6000602082840312156108ff576108fe610d7d565b5b600061090d848285016108bf565b91505092915050565b60006020828403121561092c5761092b610d7d565b5b600061093a848285016108d4565b91505092915050565b61094c81610c8e565b82525050565b61095b81610ca0565b82525050565b600061096e602883610c7d565b915061097982610d82565b604082019050919050565b6000610991601783610c7d565b915061099c82610dd1565b602082019050919050565b60006109b4601683610c7d565b91506109bf82610dfa565b602082019050919050565b60006109d7601983610c7d565b91506109e282610e23565b602082019050919050565b60006109fa601683610c7d565b9150610a0582610e4c565b602082019050919050565b6000610a1d600083610c72565b9150610a2882610e75565b600082019050919050565b6000610a40602083610c7d565b9150610a4b82610e78565b602082019050919050565b6000610a63602183610c7d565b9150610a6e82610ea1565b604082019050919050565b6000610a86601d83610c7d565b9150610a9182610ef0565b602082019050919050565b610aa581610ccc565b82525050565b6000610ab682610a10565b9150819050919050565b6000602082019050610ad56000830184610943565b92915050565b6000606082019050610af06000830186610943565b610afd6020830185610a9c565b610b0a6040830184610952565b949350505050565b60006020820190508181036000830152610b2b81610961565b9050919050565b60006020820190508181036000830152610b4b81610984565b9050919050565b60006020820190508181036000830152610b6b816109a7565b9050919050565b60006020820190508181036000830152610b8b816109ca565b9050919050565b60006020820190508181036000830152610bab816109ed565b9050919050565b60006020820190508181036000830152610bcb81610a33565b9050919050565b60006020820190508181036000830152610beb81610a56565b9050919050565b60006020820190508181036000830152610c0b81610a79565b9050919050565b6000602082019050610c276000830184610a9c565b92915050565b6000608082019050610c426000830187610a9c565b610c4f6020830186610943565b610c5c6040830185610943565b610c696060830184610a9c565b95945050505050565b600081905092915050565b600082825260208201905092915050565b6000610c9982610cac565b9050919050565b60008115159050919050565b600073ffffffffffffffffffffffffffffffffffffffff82169050919050565b6000819050919050565b6000610ce182610ccc565b91507fffffffffffffffffffffffffffffffffffffffffffffffffffffffffffffffff821415610d1457610d13610d1f565b5b600182019050919050565b7f4e487b7100000000000000000000000000000000000000000000000000000000600052601160045260246000fd5b7f4e487b7100000000000000000000000000000000000000000000000000000000600052603260045260246000fd5b600080fd5b7f205472616e7366657220616d6f756e74206d757374206265206772656174657260008201527f207468656e203020000000000000000000000000000000000000000000000000602082015250565b7f20496e76616c6964207472616e73616374696f6e204944000000000000000000600082015250565b7f496e76616c6964205472616e73616374696f6e20494400000000000000000000600082015250565b7f20496e76616c6964207265636569766572206164647265737300000000000000600082015250565b7f496e76616c6964207472616e73616374696f6e20494400000000000000000000600082015250565b50565b7f5472616e73616374696f6e20697320616c726561647920657865637574656420600082015250565b7f205472616e73616374696f6e20697320616c726561647920636f6e6669726d6560008201527f6400000000000000000000000000000000000000000000000000000000000000602082015250565b7f5472616e73616374696f6e20457865637574696f6e204661696c656421000000600082015250565b610f2281610c8e565b8114610f2d57600080fd5b50565b610f3981610ccc565b8114610f4457600080fd5b5056fea2646970667358221220c54999f0c24339a271e38218d4da2613fb8a6352f9e9a9613af8f2785b4c8a2d64736f6c63430008070033",
					"opcodes": "PUSH1 0x80 PUSH1 0x40 MSTORE CALLVALUE DUP1 ISZERO PUSH3 0x11 JUMPI PUSH1 0x0 DUP1 REVERT JUMPDEST POP PUSH1 0x40 MLOAD PUSH3 0x1699 CODESIZE SUB DUP1 PUSH3 0x1699 DUP4 CODECOPY DUP2 DUP2 ADD PUSH1 0x40 MSTORE DUP2 ADD SWAP1 PUSH3 0x37 SWAP2 SWAP1 PUSH3 0x2F3 JUMP JUMPDEST PUSH1 0x1 DUP3 MLOAD GT PUSH3 0x7E JUMPI PUSH1 0x40 MLOAD PUSH32 0x8C379A000000000000000000000000000000000000000000000000000000000 DUP2 MSTORE PUSH1 0x4 ADD PUSH3 0x75 SWAP1 PUSH3 0x3CE JUMP JUMPDEST PUSH1 0x40 MLOAD DUP1 SWAP2 SUB SWAP1 REVERT JUMPDEST PUSH1 0x0 DUP2 GT DUP1 ISZERO PUSH3 0x92 JUMPI POP DUP2 MLOAD PUSH1 0x1 SLOAD GT ISZERO JUMPDEST PUSH3 0xD4 JUMPI PUSH1 0x40 MLOAD PUSH32 0x8C379A000000000000000000000000000000000000000000000000000000000 DUP2 MSTORE PUSH1 0x4 ADD PUSH3 0xCB SWAP1 PUSH3 0x3F0 JUMP JUMPDEST PUSH1 0x40 MLOAD DUP1 SWAP2 SUB SWAP1 REVERT JUMPDEST PUSH1 0x0 JUMPDEST DUP3 MLOAD DUP2 LT ISZERO PUSH3 0x207 JUMPI PUSH1 0x0 PUSH20 0xFFFFFFFFFFFFFFFFFFFFFFFFFFFFFFFFFFFFFFFF AND DUP4 DUP3 DUP2 MLOAD DUP2 LT PUSH3 0x10F JUMPI PUSH3 0x10E PUSH3 0x58E JUMP JUMPDEST JUMPDEST PUSH1 0x20 MUL PUSH1 0x20 ADD ADD MLOAD PUSH20 0xFFFFFFFFFFFFFFFFFFFFFFFFFFFFFFFFFFFFFFFF AND EQ ISZERO PUSH3 0x171 JUMPI PUSH1 0x40 MLOAD PUSH32 0x8C379A000000000000000000000000000000000000000000000000000000000 DUP2 MSTORE PUSH1 0x4 ADD PUSH3 0x168 SWAP1 PUSH3 0x412 JUMP JUMPDEST PUSH1 0x40 MLOAD DUP1 SWAP2 SUB SWAP1 REVERT JUMPDEST PUSH1 0x0 DUP4 DUP3 DUP2 MLOAD DUP2 LT PUSH3 0x189 JUMPI PUSH3 0x188 PUSH3 0x58E JUMP JUMPDEST JUMPDEST PUSH1 0x20 MUL PUSH1 0x20 ADD ADD MLOAD SWAP1 DUP1 PUSH1 0x1 DUP2 SLOAD ADD DUP1 DUP3 SSTORE DUP1 SWAP2 POP POP PUSH1 0x1 SWAP1 SUB SWAP1 PUSH1 0x0 MSTORE PUSH1 0x20 PUSH1 0x0 KECCAK256 ADD PUSH1 0x0 SWAP1 SWAP2 SWAP1 SWAP2 SWAP1 SWAP2 PUSH2 0x100 EXP DUP2 SLOAD DUP2 PUSH20 0xFFFFFFFFFFFFFFFFFFFFFFFFFFFFFFFFFFFFFFFF MUL NOT AND SWAP1 DUP4 PUSH20 0xFFFFFFFFFFFFFFFFFFFFFFFFFFFFFFFFFFFFFFFF AND MUL OR SWAP1 SSTORE POP DUP1 DUP1 PUSH3 0x1FE SWAP1 PUSH3 0x511 JUMP JUMPDEST SWAP2 POP POP PUSH3 0xD7 JUMP JUMPDEST POP DUP1 PUSH1 0x1 DUP2 SWAP1 SSTORE POP POP POP PUSH3 0x70C JUMP JUMPDEST PUSH1 0x0 PUSH3 0x22E PUSH3 0x228 DUP5 PUSH3 0x45D JUMP JUMPDEST PUSH3 0x434 JUMP JUMPDEST SWAP1 POP DUP1 DUP4 DUP3 MSTORE PUSH1 0x20 DUP3 ADD SWAP1 POP DUP3 DUP6 PUSH1 0x20 DUP7 MUL DUP3 ADD GT ISZERO PUSH3 0x254 JUMPI PUSH3 0x253 PUSH3 0x5F1 JUMP JUMPDEST JUMPDEST PUSH1 0x0 JUMPDEST DUP6 DUP2 LT ISZERO PUSH3 0x288 JUMPI DUP2 PUSH3 0x26D DUP9 DUP3 PUSH3 0x292 JUMP JUMPDEST DUP5 MSTORE PUSH1 0x20 DUP5 ADD SWAP4 POP PUSH1 0x20 DUP4 ADD SWAP3 POP POP PUSH1 0x1 DUP2 ADD SWAP1 POP PUSH3 0x257 JUMP JUMPDEST POP POP POP SWAP4 SWAP3 POP POP POP JUMP JUMPDEST PUSH1 0x0 DUP2 MLOAD SWAP1 POP PUSH3 0x2A3 DUP2 PUSH3 0x6D8 JUMP JUMPDEST SWAP3 SWAP2 POP POP JUMP JUMPDEST PUSH1 0x0 DUP3 PUSH1 0x1F DUP4 ADD SLT PUSH3 0x2C1 JUMPI PUSH3 0x2C0 PUSH3 0x5EC JUMP JUMPDEST JUMPDEST DUP2 MLOAD PUSH3 0x2D3 DUP5 DUP3 PUSH1 0x20 DUP7 ADD PUSH3 0x217 JUMP JUMPDEST SWAP2 POP POP SWAP3 SWAP2 POP POP JUMP JUMPDEST PUSH1 0x0 DUP2 MLOAD SWAP1 POP PUSH3 0x2ED DUP2 PUSH3 0x6F2 JUMP JUMPDEST SWAP3 SWAP2 POP POP JUMP JUMPDEST PUSH1 0x0 DUP1 PUSH1 0x40 DUP4 DUP6 SUB SLT ISZERO PUSH3 0x30D JUMPI PUSH3 0x30C PUSH3 0x5FB JUMP JUMPDEST JUMPDEST PUSH1 0x0 DUP4 ADD MLOAD PUSH8 0xFFFFFFFFFFFFFFFF DUP2 GT ISZERO PUSH3 0x32E JUMPI PUSH3 0x32D PUSH3 0x5F6 JUMP JUMPDEST JUMPDEST PUSH3 0x33C DUP6 DUP3 DUP7 ADD PUSH3 0x2A9 JUMP JUMPDEST SWAP3 POP POP PUSH1 0x20 PUSH3 0x34F DUP6 DUP3 DUP7 ADD PUSH3 0x2DC JUMP JUMPDEST SWAP2 POP POP SWAP3 POP SWAP3 SWAP1 POP JUMP JUMPDEST PUSH1 0x0 PUSH3 0x368 PUSH1 0x26 DUP4 PUSH3 0x48C JUMP JUMPDEST SWAP2 POP PUSH3 0x375 DUP3 PUSH3 0x611 JUMP JUMPDEST PUSH1 0x40 DUP3 ADD SWAP1 POP SWAP2 SWAP1 POP JUMP JUMPDEST PUSH1 0x0 PUSH3 0x38F PUSH1 0x26 DUP4 PUSH3 0x48C JUMP JUMPDEST SWAP2 POP PUSH3 0x39C DUP3 PUSH3 0x660 JUMP JUMPDEST PUSH1 0x40 DUP3 ADD SWAP1 POP SWAP2 SWAP1 POP JUMP JUMPDEST PUSH1 0x0 PUSH3 0x3B6 PUSH1 0xE DUP4 PUSH3 0x48C JUMP JUMPDEST SWAP2 POP PUSH3 0x3C3 DUP3 PUSH3 0x6AF JUMP JUMPDEST PUSH1 0x20 DUP3 ADD SWAP1 POP SWAP2 SWAP1 POP JUMP JUMPDEST PUSH1 0x0 PUSH1 0x20 DUP3 ADD SWAP1 POP DUP2 DUP2 SUB PUSH1 0x0 DUP4 ADD MSTORE PUSH3 0x3E9 DUP2 PUSH3 0x359 JUMP JUMPDEST SWAP1 POP SWAP2 SWAP1 POP JUMP JUMPDEST PUSH1 0x0 PUSH1 0x20 DUP3 ADD SWAP1 POP DUP2 DUP2 SUB PUSH1 0x0 DUP4 ADD MSTORE PUSH3 0x40B DUP2 PUSH3 0x380 JUMP JUMPDEST SWAP1 POP SWAP2 SWAP1 POP JUMP JUMPDEST PUSH1 0x0 PUSH1 0x20 DUP3 ADD SWAP1 POP DUP2 DUP2 SUB PUSH1 0x0 DUP4 ADD MSTORE PUSH3 0x42D DUP2 PUSH3 0x3A7 JUMP JUMPDEST SWAP1 POP SWAP2 SWAP1 POP JUMP JUMPDEST PUSH1 0x0 PUSH3 0x440 PUSH3 0x453 JUMP JUMPDEST SWAP1 POP PUSH3 0x44E DUP3 DUP3 PUSH3 0x4DB JUMP JUMPDEST SWAP2 SWAP1 POP JUMP JUMPDEST PUSH1 0x0 PUSH1 0x40 MLOAD SWAP1 POP SWAP1 JUMP JUMPDEST PUSH1 0x0 PUSH8 0xFFFFFFFFFFFFFFFF DUP3 GT ISZERO PUSH3 0x47B JUMPI PUSH3 0x47A PUSH3 0x5BD JUMP JUMPDEST JUMPDEST PUSH1 0x20 DUP3 MUL SWAP1 POP PUSH1 0x20 DUP2 ADD SWAP1 POP SWAP2 SWAP1 POP JUMP JUMPDEST PUSH1 0x0 DUP3 DUP3 MSTORE PUSH1 0x20 DUP3 ADD SWAP1 POP SWAP3 SWAP2 POP POP JUMP JUMPDEST PUSH1 0x0 PUSH3 0x4AA DUP3 PUSH3 0x4B1 JUMP JUMPDEST SWAP1 POP SWAP2 SWAP1 POP JUMP JUMPDEST PUSH1 0x0 PUSH20 0xFFFFFFFFFFFFFFFFFFFFFFFFFFFFFFFFFFFFFFFF DUP3 AND SWAP1 POP SWAP2 SWAP1 POP JUMP JUMPDEST PUSH1 0x0 DUP2 SWAP1 POP SWAP2 SWAP1 POP JUMP JUMPDEST PUSH3 0x4E6 DUP3 PUSH3 0x600 JUMP JUMPDEST DUP2 ADD DUP2 DUP2 LT PUSH8 0xFFFFFFFFFFFFFFFF DUP3 GT OR ISZERO PUSH3 0x508 JUMPI PUSH3 0x507 PUSH3 0x5BD JUMP JUMPDEST JUMPDEST DUP1 PUSH1 0x40 MSTORE POP POP POP JUMP JUMPDEST PUSH1 0x0 PUSH3 0x51E DUP3 PUSH3 0x4D1 JUMP JUMPDEST SWAP2 POP PUSH32 0xFFFFFFFFFFFFFFFFFFFFFFFFFFFFFFFFFFFFFFFFFFFFFFFFFFFFFFFFFFFFFFFF DUP3 EQ ISZERO PUSH3 0x554 JUMPI PUSH3 0x553 PUSH3 0x55F JUMP JUMPDEST JUMPDEST PUSH1 0x1 DUP3 ADD SWAP1 POP SWAP2 SWAP1 POP JUMP JUMPDEST PUSH32 0x4E487B7100000000000000000000000000000000000000000000000000000000 PUSH1 0x0 MSTORE PUSH1 0x11 PUSH1 0x4 MSTORE PUSH1 0x24 PUSH1 0x0 REVERT JUMPDEST PUSH32 0x4E487B7100000000000000000000000000000000000000000000000000000000 PUSH1 0x0 MSTORE PUSH1 0x32 PUSH1 0x4 MSTORE PUSH1 0x24 PUSH1 0x0 REVERT JUMPDEST PUSH32 0x4E487B7100000000000000000000000000000000000000000000000000000000 PUSH1 0x0 MSTORE PUSH1 0x41 PUSH1 0x4 MSTORE PUSH1 0x24 PUSH1 0x0 REVERT JUMPDEST PUSH1 0x0 DUP1 REVERT JUMPDEST PUSH1 0x0 DUP1 REVERT JUMPDEST PUSH1 0x0 DUP1 REVERT JUMPDEST PUSH1 0x0 DUP1 REVERT JUMPDEST PUSH1 0x0 PUSH1 0x1F NOT PUSH1 0x1F DUP4 ADD AND SWAP1 POP SWAP2 SWAP1 POP JUMP JUMPDEST PUSH32 0x4F776E657273207265717569726564206D757374206265206772656174657220 PUSH1 0x0 DUP3 ADD MSTORE PUSH32 0x7468616E20310000000000000000000000000000000000000000000000000000 PUSH1 0x20 DUP3 ADD MSTORE POP JUMP JUMPDEST PUSH32 0x4E756D626572206F6620636F6E6669726D6174696F6E20646F6573206E6F7420 PUSH1 0x0 DUP3 ADD MSTORE PUSH32 0x6D61746368200000000000000000000000000000000000000000000000000000 PUSH1 0x20 DUP3 ADD MSTORE POP JUMP JUMPDEST PUSH32 0x20496E76616C6964204F776E6572000000000000000000000000000000000000 PUSH1 0x0 DUP3 ADD MSTORE POP JUMP JUMPDEST PUSH3 0x6E3 DUP2 PUSH3 0x49D JUMP JUMPDEST DUP2 EQ PUSH3 0x6EF JUMPI PUSH1 0x0 DUP1 REVERT JUMPDEST POP JUMP JUMPDEST PUSH3 0x6FD DUP2 PUSH3 0x4D1 JUMP JUMPDEST DUP2 EQ PUSH3 0x709 JUMPI PUSH1 0x0 DUP1 REVERT JUMPDEST POP JUMP JUMPDEST PUSH2 0xF7D DUP1 PUSH3 0x71C PUSH1 0x0 CODECOPY PUSH1 0x0 RETURN INVALID PUSH1 0x80 PUSH1 0x40 MSTORE PUSH1 0x4 CALLDATASIZE LT PUSH2 0x55 JUMPI PUSH1 0x0 CALLDATALOAD PUSH1 0xE0 SHR DUP1 PUSH4 0x25E7C27 EQ PUSH2 0x5A JUMPI DUP1 PUSH4 0x4D18C8F8 EQ PUSH2 0x97 JUMPI DUP1 PUSH4 0x66D651DB EQ PUSH2 0xC2 JUMPI DUP1 PUSH4 0x79D073E9 EQ PUSH2 0xDE JUMPI DUP1 PUSH4 0x9ACE38C2 EQ PUSH2 0x107 JUMPI DUP1 PUSH4 0xEE22610B EQ PUSH2 0x146 JUMPI JUMPDEST PUSH1 0x0 DUP1 REVERT JUMPDEST CALLVALUE DUP1 ISZERO PUSH2 0x66 JUMPI PUSH1 0x0 DUP1 REVERT JUMPDEST POP PUSH2 0x81 PUSH1 0x4 DUP1 CALLDATASIZE SUB DUP2 ADD SWAP1 PUSH2 0x7C SWAP2 SWAP1 PUSH2 0x916 JUMP JUMPDEST PUSH2 0x162 JUMP JUMPDEST PUSH1 0x40 MLOAD PUSH2 0x8E SWAP2 SWAP1 PUSH2 0xAC0 JUMP JUMPDEST PUSH1 0x40 MLOAD DUP1 SWAP2 SUB SWAP1 RETURN JUMPDEST CALLVALUE DUP1 ISZERO PUSH2 0xA3 JUMPI PUSH1 0x0 DUP1 REVERT JUMPDEST POP PUSH2 0xAC PUSH2 0x1A1 JUMP JUMPDEST PUSH1 0x40 MLOAD PUSH2 0xB9 SWAP2 SWAP1 PUSH2 0xC12 JUMP JUMPDEST PUSH1 0x40 MLOAD DUP1 SWAP2 SUB SWAP1 RETURN JUMPDEST PUSH2 0xDC PUSH1 0x4 DUP1 CALLDATASIZE SUB DUP2 ADD SWAP1 PUSH2 0xD7 SWAP2 SWAP1 PUSH2 0x8E9 JUMP JUMPDEST PUSH2 0x1A7 JUMP JUMPDEST STOP JUMPDEST CALLVALUE DUP1 ISZERO PUSH2 0xEA JUMPI PUSH1 0x0 DUP1 REVERT JUMPDEST POP PUSH2 0x105 PUSH1 0x4 DUP1 CALLDATASIZE SUB DUP2 ADD SWAP1 PUSH2 0x100 SWAP2 SWAP1 PUSH2 0x916 JUMP JUMPDEST PUSH2 0x377 JUMP JUMPDEST STOP JUMPDEST CALLVALUE DUP1 ISZERO PUSH2 0x113 JUMPI PUSH1 0x0 DUP1 REVERT JUMPDEST POP PUSH2 0x12E PUSH1 0x4 DUP1 CALLDATASIZE SUB DUP2 ADD SWAP1 PUSH2 0x129 SWAP2 SWAP1 PUSH2 0x916 JUMP JUMPDEST PUSH2 0x517 JUMP JUMPDEST PUSH1 0x40 MLOAD PUSH2 0x13D SWAP4 SWAP3 SWAP2 SWAP1 PUSH2 0xADB JUMP JUMPDEST PUSH1 0x40 MLOAD DUP1 SWAP2 SUB SWAP1 RETURN JUMPDEST PUSH2 0x160 PUSH1 0x4 DUP1 CALLDATASIZE SUB DUP2 ADD SWAP1 PUSH2 0x15B SWAP2 SWAP1 PUSH2 0x916 JUMP JUMPDEST PUSH2 0x57E JUMP JUMPDEST STOP JUMPDEST PUSH1 0x0 DUP2 DUP2 SLOAD DUP2 LT PUSH2 0x172 JUMPI PUSH1 0x0 DUP1 REVERT JUMPDEST SWAP1 PUSH1 0x0 MSTORE PUSH1 0x20 PUSH1 0x0 KECCAK256 ADD PUSH1 0x0 SWAP2 POP SLOAD SWAP1 PUSH2 0x100 EXP SWAP1 DIV PUSH20 0xFFFFFFFFFFFFFFFFFFFFFFFFFFFFFFFFFFFFFFFF AND DUP2 JUMP JUMPDEST PUSH1 0x1 SLOAD DUP2 JUMP JUMPDEST PUSH1 0x0 PUSH20 0xFFFFFFFFFFFFFFFFFFFFFFFFFFFFFFFFFFFFFFFF AND DUP2 PUSH20 0xFFFFFFFFFFFFFFFFFFFFFFFFFFFFFFFFFFFFFFFF AND EQ ISZERO PUSH2 0x217 JUMPI PUSH1 0x40 MLOAD PUSH32 0x8C379A000000000000000000000000000000000000000000000000000000000 DUP2 MSTORE PUSH1 0x4 ADD PUSH2 0x20E SWAP1 PUSH2 0xB72 JUMP JUMPDEST PUSH1 0x40 MLOAD DUP1 SWAP2 SUB SWAP1 REVERT JUMPDEST PUSH1 0x0 CALLVALUE GT PUSH2 0x25A JUMPI PUSH1 0x40 MLOAD PUSH32 0x8C379A000000000000000000000000000000000000000000000000000000000 DUP2 MSTORE PUSH1 0x4 ADD PUSH2 0x251 SWAP1 PUSH2 0xB12 JUMP JUMPDEST PUSH1 0x40 MLOAD DUP1 SWAP2 SUB SWAP1 REVERT JUMPDEST PUSH1 0x0 PUSH1 0x3 DUP1 SLOAD SWAP1 POP SWAP1 POP PUSH1 0x3 PUSH1 0x40 MLOAD DUP1 PUSH1 0x60 ADD PUSH1 0x40 MSTORE DUP1 DUP5 PUSH20 0xFFFFFFFFFFFFFFFFFFFFFFFFFFFFFFFFFFFFFFFF AND DUP2 MSTORE PUSH1 0x20 ADD CALLVALUE DUP2 MSTORE PUSH1 0x20 ADD PUSH1 0x0 ISZERO ISZERO DUP2 MSTORE POP SWAP1 DUP1 PUSH1 0x1 DUP2 SLOAD ADD DUP1 DUP3 SSTORE DUP1 SWAP2 POP POP PUSH1 0x1 SWAP1 SUB SWAP1 PUSH1 0x0 MSTORE PUSH1 0x20 PUSH1 0x0 KECCAK256 SWAP1 PUSH1 0x3 MUL ADD PUSH1 0x0 SWAP1 SWAP2 SWAP1 SWAP2 SWAP1 SWAP2 POP PUSH1 0x0 DUP3 ADD MLOAD DUP2 PUSH1 0x0 ADD PUSH1 0x0 PUSH2 0x100 EXP DUP2 SLOAD DUP2 PUSH20 0xFFFFFFFFFFFFFFFFFFFFFFFFFFFFFFFFFFFFFFFF MUL NOT AND SWAP1 DUP4 PUSH20 0xFFFFFFFFFFFFFFFFFFFFFFFFFFFFFFFFFFFFFFFF AND MUL OR SWAP1 SSTORE POP PUSH1 0x20 DUP3 ADD MLOAD DUP2 PUSH1 0x1 ADD SSTORE PUSH1 0x40 DUP3 ADD MLOAD DUP2 PUSH1 0x2 ADD PUSH1 0x0 PUSH2 0x100 EXP DUP2 SLOAD DUP2 PUSH1 0xFF MUL NOT AND SWAP1 DUP4 ISZERO ISZERO MUL OR SWAP1 SSTORE POP POP POP PUSH32 0x7E4D38758829C5A4977CF1D9A9431259ADB6A2ABB60F16E9F63453824BE63D00 DUP2 CALLER DUP5 CALLVALUE PUSH1 0x40 MLOAD PUSH2 0x36B SWAP5 SWAP4 SWAP3 SWAP2 SWAP1 PUSH2 0xC2D JUMP JUMPDEST PUSH1 0x40 MLOAD DUP1 SWAP2 SUB SWAP1 LOG1 POP POP JUMP JUMPDEST PUSH1 0x3 DUP1 SLOAD SWAP1 POP DUP2 LT PUSH2 0x3BE JUMPI PUSH1 0x40 MLOAD PUSH32 0x8C379A000000000000000000000000000000000000000000000000000000000 DUP2 MSTORE PUSH1 0x4 ADD PUSH2 0x3B5 SWAP1 PUSH2 0xB92 JUMP JUMPDEST PUSH1 0x40 MLOAD DUP1 SWAP2 SUB SWAP1 REVERT JUMPDEST PUSH1 0x2 PUSH1 0x0 DUP3 DUP2 MSTORE PUSH1 0x20 ADD SWAP1 DUP2 MSTORE PUSH1 0x20 ADD PUSH1 0x0 KECCAK256 PUSH1 0x0 CALLER PUSH20 0xFFFFFFFFFFFFFFFFFFFFFFFFFFFFFFFFFFFFFFFF AND PUSH20 0xFFFFFFFFFFFFFFFFFFFFFFFFFFFFFFFFFFFFFFFF AND DUP2 MSTORE PUSH1 0x20 ADD SWAP1 DUP2 MSTORE PUSH1 0x20 ADD PUSH1 0x0 KECCAK256 PUSH1 0x0 SWAP1 SLOAD SWAP1 PUSH2 0x100 EXP SWAP1 DIV PUSH1 0xFF AND ISZERO PUSH2 0x45C JUMPI PUSH1 0x40 MLOAD PUSH32 0x8C379A000000000000000000000000000000000000000000000000000000000 DUP2 MSTORE PUSH1 0x4 ADD PUSH2 0x453 SWAP1 PUSH2 0xBD2 JUMP JUMPDEST PUSH1 0x40 MLOAD DUP1 SWAP2 SUB SWAP1 REVERT JUMPDEST PUSH1 0x1 PUSH1 0x2 PUSH1 0x0 DUP4 DUP2 MSTORE PUSH1 0x20 ADD SWAP1 DUP2 MSTORE PUSH1 0x20 ADD PUSH1 0x0 KECCAK256 PUSH1 0x0 CALLER PUSH20 0xFFFFFFFFFFFFFFFFFFFFFFFFFFFFFFFFFFFFFFFF AND PUSH20 0xFFFFFFFFFFFFFFFFFFFFFFFFFFFFFFFFFFFFFFFF AND DUP2 MSTORE PUSH1 0x20 ADD SWAP1 DUP2 MSTORE PUSH1 0x20 ADD PUSH1 0x0 KECCAK256 PUSH1 0x0 PUSH2 0x100 EXP DUP2 SLOAD DUP2 PUSH1 0xFF MUL NOT AND SWAP1 DUP4 ISZERO ISZERO MUL OR SWAP1 SSTORE POP PUSH32 0xEF524C298D730E7D5714DBE2FCE9D4ECA7DE755A12628704719170AFDA39678B DUP2 PUSH1 0x40 MLOAD PUSH2 0x4F4 SWAP2 SWAP1 PUSH2 0xC12 JUMP JUMPDEST PUSH1 0x40 MLOAD DUP1 SWAP2 SUB SWAP1 LOG1 PUSH2 0x505 DUP2 PUSH2 0x790 JUMP JUMPDEST ISZERO PUSH2 0x514 JUMPI PUSH2 0x513 DUP2 PUSH2 0x57E JUMP JUMPDEST JUMPDEST POP JUMP JUMPDEST PUSH1 0x3 DUP2 DUP2 SLOAD DUP2 LT PUSH2 0x527 JUMPI PUSH1 0x0 DUP1 REVERT JUMPDEST SWAP1 PUSH1 0x0 MSTORE PUSH1 0x20 PUSH1 0x0 KECCAK256 SWAP1 PUSH1 0x3 MUL ADD PUSH1 0x0 SWAP2 POP SWAP1 POP DUP1 PUSH1 0x0 ADD PUSH1 0x0 SWAP1 SLOAD SWAP1 PUSH2 0x100 EXP SWAP1 DIV PUSH20 0xFFFFFFFFFFFFFFFFFFFFFFFFFFFFFFFFFFFFFFFF AND SWAP1 DUP1 PUSH1 0x1 ADD SLOAD SWAP1 DUP1 PUSH1 0x2 ADD PUSH1 0x0 SWAP1 SLOAD SWAP1 PUSH2 0x100 EXP SWAP1 DIV PUSH1 0xFF AND SWAP1 POP DUP4 JUMP JUMPDEST PUSH1 0x3 DUP1 SLOAD SWAP1 POP DUP2 LT PUSH2 0x5C5 JUMPI PUSH1 0x40 MLOAD PUSH32 0x8C379A000000000000000000000000000000000000000000000000000000000 DUP2 MSTORE PUSH1 0x4 ADD PUSH2 0x5BC SWAP1 PUSH2 0xB52 JUMP JUMPDEST PUSH1 0x40 MLOAD DUP1 SWAP2 SUB SWAP1 REVERT JUMPDEST PUSH1 0x3 DUP2 DUP2 SLOAD DUP2 LT PUSH2 0x5D9 JUMPI PUSH2 0x5D8 PUSH2 0xD4E JUMP JUMPDEST JUMPDEST SWAP1 PUSH1 0x0 MSTORE PUSH1 0x20 PUSH1 0x0 KECCAK256 SWAP1 PUSH1 0x3 MUL ADD PUSH1 0x2 ADD PUSH1 0x0 SWAP1 SLOAD SWAP1 PUSH2 0x100 EXP SWAP1 DIV PUSH1 0xFF AND ISZERO PUSH2 0x638 JUMPI PUSH1 0x40 MLOAD PUSH32 0x8C379A000000000000000000000000000000000000000000000000000000000 DUP2 MSTORE PUSH1 0x4 ADD PUSH2 0x62F SWAP1 PUSH2 0xBB2 JUMP JUMPDEST PUSH1 0x40 MLOAD DUP1 SWAP2 SUB SWAP1 REVERT JUMPDEST PUSH1 0x0 PUSH1 0x3 DUP3 DUP2 SLOAD DUP2 LT PUSH2 0x64E JUMPI PUSH2 0x64D PUSH2 0xD4E JUMP JUMPDEST JUMPDEST SWAP1 PUSH1 0x0 MSTORE PUSH1 0x20 PUSH1 0x0 KECCAK256 SWAP1 PUSH1 0x3 MUL ADD PUSH1 0x0 ADD PUSH1 0x0 SWAP1 SLOAD SWAP1 PUSH2 0x100 EXP SWAP1 DIV PUSH20 0xFFFFFFFFFFFFFFFFFFFFFFFFFFFFFFFFFFFFFFFF AND PUSH20 0xFFFFFFFFFFFFFFFFFFFFFFFFFFFFFFFFFFFFFFFF AND PUSH1 0x3 DUP4 DUP2 SLOAD DUP2 LT PUSH2 0x6AA JUMPI PUSH2 0x6A9 PUSH2 0xD4E JUMP JUMPDEST JUMPDEST SWAP1 PUSH1 0x0 MSTORE PUSH1 0x20 PUSH1 0x0 KECCAK256 SWAP1 PUSH1 0x3 MUL ADD PUSH1 0x1 ADD SLOAD PUSH1 0x40 MLOAD PUSH2 0x6C8 SWAP1 PUSH2 0xAAB JUMP JUMPDEST PUSH1 0x0 PUSH1 0x40 MLOAD DUP1 DUP4 SUB DUP2 DUP6 DUP8 GAS CALL SWAP3 POP POP POP RETURNDATASIZE DUP1 PUSH1 0x0 DUP2 EQ PUSH2 0x705 JUMPI PUSH1 0x40 MLOAD SWAP2 POP PUSH1 0x1F NOT PUSH1 0x3F RETURNDATASIZE ADD AND DUP3 ADD PUSH1 0x40 MSTORE RETURNDATASIZE DUP3 MSTORE RETURNDATASIZE PUSH1 0x0 PUSH1 0x20 DUP5 ADD RETURNDATACOPY PUSH2 0x70A JUMP JUMPDEST PUSH1 0x60 SWAP2 POP JUMPDEST POP POP SWAP1 POP DUP1 PUSH2 0x74E JUMPI PUSH1 0x40 MLOAD PUSH32 0x8C379A000000000000000000000000000000000000000000000000000000000 DUP2 MSTORE PUSH1 0x4 ADD PUSH2 0x745 SWAP1 PUSH2 0xBF2 JUMP JUMPDEST PUSH1 0x40 MLOAD DUP1 SWAP2 SUB SWAP1 REVERT JUMPDEST PUSH1 0x1 PUSH1 0x3 DUP4 DUP2 SLOAD DUP2 LT PUSH2 0x764 JUMPI PUSH2 0x763 PUSH2 0xD4E JUMP JUMPDEST JUMPDEST SWAP1 PUSH1 0x0 MSTORE PUSH1 0x20 PUSH1 0x0 KECCAK256 SWAP1 PUSH1 0x3 MUL ADD PUSH1 0x2 ADD PUSH1 0x0 PUSH2 0x100 EXP DUP2 SLOAD DUP2 PUSH1 0xFF MUL NOT AND SWAP1 DUP4 ISZERO ISZERO MUL OR SWAP1 SSTORE POP POP POP JUMP JUMPDEST PUSH1 0x0 PUSH1 0x3 DUP1 SLOAD SWAP1 POP DUP3 LT PUSH2 0x7D9 JUMPI PUSH1 0x40 MLOAD PUSH32 0x8C379A000000000000000000000000000000000000000000000000000000000 DUP2 MSTORE PUSH1 0x4 ADD PUSH2 0x7D0 SWAP1 PUSH2 0xB32 JUMP JUMPDEST PUSH1 0x40 MLOAD DUP1 SWAP2 SUB SWAP1 REVERT JUMPDEST PUSH1 0x0 DUP1 PUSH1 0x0 SWAP1 POP JUMPDEST PUSH1 0x0 DUP1 SLOAD SWAP1 POP DUP2 LT ISZERO PUSH2 0x8B0 JUMPI PUSH1 0x2 PUSH1 0x0 DUP6 DUP2 MSTORE PUSH1 0x20 ADD SWAP1 DUP2 MSTORE PUSH1 0x20 ADD PUSH1 0x0 KECCAK256 PUSH1 0x0 DUP1 DUP4 DUP2 SLOAD DUP2 LT PUSH2 0x816 JUMPI PUSH2 0x815 PUSH2 0xD4E JUMP JUMPDEST JUMPDEST SWAP1 PUSH1 0x0 MSTORE PUSH1 0x20 PUSH1 0x0 KECCAK256 ADD PUSH1 0x0 SWAP1 SLOAD SWAP1 PUSH2 0x100 EXP SWAP1 DIV PUSH20 0xFFFFFFFFFFFFFFFFFFFFFFFFFFFFFFFFFFFFFFFF AND PUSH20 0xFFFFFFFFFFFFFFFFFFFFFFFFFFFFFFFFFFFFFFFF AND PUSH20 0xFFFFFFFFFFFFFFFFFFFFFFFFFFFFFFFFFFFFFFFF AND DUP2 MSTORE PUSH1 0x20 ADD SWAP1 DUP2 MSTORE PUSH1 0x20 ADD PUSH1 0x0 KECCAK256 PUSH1 0x0 SWAP1 SLOAD SWAP1 PUSH2 0x100 EXP SWAP1 DIV PUSH1 0xFF AND ISZERO PUSH2 0x89D JUMPI DUP2 DUP1 PUSH2 0x899 SWAP1 PUSH2 0xCD6 JUMP JUMPDEST SWAP3 POP POP JUMPDEST DUP1 DUP1 PUSH2 0x8A8 SWAP1 PUSH2 0xCD6 JUMP JUMPDEST SWAP2 POP POP PUSH2 0x7E1 JUMP JUMPDEST POP PUSH1 0x1 SLOAD DUP2 LT ISZERO SWAP2 POP POP SWAP2 SWAP1 POP JUMP JUMPDEST PUSH1 0x0 DUP2 CALLDATALOAD SWAP1 POP PUSH2 0x8CE DUP2 PUSH2 0xF19 JUMP JUMPDEST SWAP3 SWAP2 POP POP JUMP JUMPDEST PUSH1 0x0 DUP2 CALLDATALOAD SWAP1 POP PUSH2 0x8E3 DUP2 PUSH2 0xF30 JUMP JUMPDEST SWAP3 SWAP2 POP POP JUMP JUMPDEST PUSH1 0x0 PUSH1 0x20 DUP3 DUP5 SUB SLT ISZERO PUSH2 0x8FF JUMPI PUSH2 0x8FE PUSH2 0xD7D JUMP JUMPDEST JUMPDEST PUSH1 0x0 PUSH2 0x90D DUP5 DUP3 DUP6 ADD PUSH2 0x8BF JUMP JUMPDEST SWAP2 POP POP SWAP3 SWAP2 POP POP JUMP JUMPDEST PUSH1 0x0 PUSH1 0x20 DUP3 DUP5 SUB SLT ISZERO PUSH2 0x92C JUMPI PUSH2 0x92B PUSH2 0xD7D JUMP JUMPDEST JUMPDEST PUSH1 0x0 PUSH2 0x93A DUP5 DUP3 DUP6 ADD PUSH2 0x8D4 JUMP JUMPDEST SWAP2 POP POP SWAP3 SWAP2 POP POP JUMP JUMPDEST PUSH2 0x94C DUP2 PUSH2 0xC8E JUMP JUMPDEST DUP3 MSTORE POP POP JUMP JUMPDEST PUSH2 0x95B DUP2 PUSH2 0xCA0 JUMP JUMPDEST DUP3 MSTORE POP POP JUMP JUMPDEST PUSH1 0x0 PUSH2 0x96E PUSH1 0x28 DUP4 PUSH2 0xC7D JUMP JUMPDEST SWAP2 POP PUSH2 0x979 DUP3 PUSH2 0xD82 JUMP JUMPDEST PUSH1 0x40 DUP3 ADD SWAP1 POP SWAP2 SWAP1 POP JUMP JUMPDEST PUSH1 0x0 PUSH2 0x991 PUSH1 0x17 DUP4 PUSH2 0xC7D JUMP JUMPDEST SWAP2 POP PUSH2 0x99C DUP3 PUSH2 0xDD1 JUMP JUMPDEST PUSH1 0x20 DUP3 ADD SWAP1 POP SWAP2 SWAP1 POP JUMP JUMPDEST PUSH1 0x0 PUSH2 0x9B4 PUSH1 0x16 DUP4 PUSH2 0xC7D JUMP JUMPDEST SWAP2 POP PUSH2 0x9BF DUP3 PUSH2 0xDFA JUMP JUMPDEST PUSH1 0x20 DUP3 ADD SWAP1 POP SWAP2 SWAP1 POP JUMP JUMPDEST PUSH1 0x0 PUSH2 0x9D7 PUSH1 0x19 DUP4 PUSH2 0xC7D JUMP JUMPDEST SWAP2 POP PUSH2 0x9E2 DUP3 PUSH2 0xE23 JUMP JUMPDEST PUSH1 0x20 DUP3 ADD SWAP1 POP SWAP2 SWAP1 POP JUMP JUMPDEST PUSH1 0x0 PUSH2 0x9FA PUSH1 0x16 DUP4 PUSH2 0xC7D JUMP JUMPDEST SWAP2 POP PUSH2 0xA05 DUP3 PUSH2 0xE4C JUMP JUMPDEST PUSH1 0x20 DUP3 ADD SWAP1 POP SWAP2 SWAP1 POP JUMP JUMPDEST PUSH1 0x0 PUSH2 0xA1D PUSH1 0x0 DUP4 PUSH2 0xC72 JUMP JUMPDEST SWAP2 POP PUSH2 0xA28 DUP3 PUSH2 0xE75 JUMP JUMPDEST PUSH1 0x0 DUP3 ADD SWAP1 POP SWAP2 SWAP1 POP JUMP JUMPDEST PUSH1 0x0 PUSH2 0xA40 PUSH1 0x20 DUP4 PUSH2 0xC7D JUMP JUMPDEST SWAP2 POP PUSH2 0xA4B DUP3 PUSH2 0xE78 JUMP JUMPDEST PUSH1 0x20 DUP3 ADD SWAP1 POP SWAP2 SWAP1 POP JUMP JUMPDEST PUSH1 0x0 PUSH2 0xA63 PUSH1 0x21 DUP4 PUSH2 0xC7D JUMP JUMPDEST SWAP2 POP PUSH2 0xA6E DUP3 PUSH2 0xEA1 JUMP JUMPDEST PUSH1 0x40 DUP3 ADD SWAP1 POP SWAP2 SWAP1 POP JUMP JUMPDEST PUSH1 0x0 PUSH2 0xA86 PUSH1 0x1D DUP4 PUSH2 0xC7D JUMP JUMPDEST SWAP2 POP PUSH2 0xA91 DUP3 PUSH2 0xEF0 JUMP JUMPDEST PUSH1 0x20 DUP3 ADD SWAP1 POP SWAP2 SWAP1 POP JUMP JUMPDEST PUSH2 0xAA5 DUP2 PUSH2 0xCCC JUMP JUMPDEST DUP3 MSTORE POP POP JUMP JUMPDEST PUSH1 0x0 PUSH2 0xAB6 DUP3 PUSH2 0xA10 JUMP JUMPDEST SWAP2 POP DUP2 SWAP1 POP SWAP2 SWAP1 POP JUMP JUMPDEST PUSH1 0x0 PUSH1 0x20 DUP3 ADD SWAP1 POP PUSH2 0xAD5 PUSH1 0x0 DUP4 ADD DUP5 PUSH2 0x943 JUMP JUMPDEST SWAP3 SWAP2 POP POP JUMP JUMPDEST PUSH1 0x0 PUSH1 0x60 DUP3 ADD SWAP1 POP PUSH2 0xAF0 PUSH1 0x0 DUP4 ADD DUP7 PUSH2 0x943 JUMP JUMPDEST PUSH2 0xAFD PUSH1 0x20 DUP4 ADD DUP6 PUSH2 0xA9C JUMP JUMPDEST PUSH2 0xB0A PUSH1 0x40 DUP4 ADD DUP5 PUSH2 0x952 JUMP JUMPDEST SWAP5 SWAP4 POP POP POP POP JUMP JUMPDEST PUSH1 0x0 PUSH1 0x20 DUP3 ADD SWAP1 POP DUP2 DUP2 SUB PUSH1 0x0 DUP4 ADD MSTORE PUSH2 0xB2B DUP2 PUSH2 0x961 JUMP JUMPDEST SWAP1 POP SWAP2 SWAP1 POP JUMP JUMPDEST PUSH1 0x0 PUSH1 0x20 DUP3 ADD SWAP1 POP DUP2 DUP2 SUB PUSH1 0x0 DUP4 ADD MSTORE PUSH2 0xB4B DUP2 PUSH2 0x984 JUMP JUMPDEST SWAP1 POP SWAP2 SWAP1 POP JUMP JUMPDEST PUSH1 0x0 PUSH1 0x20 DUP3 ADD SWAP1 POP DUP2 DUP2 SUB PUSH1 0x0 DUP4 ADD MSTORE PUSH2 0xB6B DUP2 PUSH2 0x9A7 JUMP JUMPDEST SWAP1 POP SWAP2 SWAP1 POP JUMP JUMPDEST PUSH1 0x0 PUSH1 0x20 DUP3 ADD SWAP1 POP DUP2 DUP2 SUB PUSH1 0x0 DUP4 ADD MSTORE PUSH2 0xB8B DUP2 PUSH2 0x9CA JUMP JUMPDEST SWAP1 POP SWAP2 SWAP1 POP JUMP JUMPDEST PUSH1 0x0 PUSH1 0x20 DUP3 ADD SWAP1 POP DUP2 DUP2 SUB PUSH1 0x0 DUP4 ADD MSTORE PUSH2 0xBAB DUP2 PUSH2 0x9ED JUMP JUMPDEST SWAP1 POP SWAP2 SWAP1 POP JUMP JUMPDEST PUSH1 0x0 PUSH1 0x20 DUP3 ADD SWAP1 POP DUP2 DUP2 SUB PUSH1 0x0 DUP4 ADD MSTORE PUSH2 0xBCB DUP2 PUSH2 0xA33 JUMP JUMPDEST SWAP1 POP SWAP2 SWAP1 POP JUMP JUMPDEST PUSH1 0x0 PUSH1 0x20 DUP3 ADD SWAP1 POP DUP2 DUP2 SUB PUSH1 0x0 DUP4 ADD MSTORE PUSH2 0xBEB DUP2 PUSH2 0xA56 JUMP JUMPDEST SWAP1 POP SWAP2 SWAP1 POP JUMP JUMPDEST PUSH1 0x0 PUSH1 0x20 DUP3 ADD SWAP1 POP DUP2 DUP2 SUB PUSH1 0x0 DUP4 ADD MSTORE PUSH2 0xC0B DUP2 PUSH2 0xA79 JUMP JUMPDEST SWAP1 POP SWAP2 SWAP1 POP JUMP JUMPDEST PUSH1 0x0 PUSH1 0x20 DUP3 ADD SWAP1 POP PUSH2 0xC27 PUSH1 0x0 DUP4 ADD DUP5 PUSH2 0xA9C JUMP JUMPDEST SWAP3 SWAP2 POP POP JUMP JUMPDEST PUSH1 0x0 PUSH1 0x80 DUP3 ADD SWAP1 POP PUSH2 0xC42 PUSH1 0x0 DUP4 ADD DUP8 PUSH2 0xA9C JUMP JUMPDEST PUSH2 0xC4F PUSH1 0x20 DUP4 ADD DUP7 PUSH2 0x943 JUMP JUMPDEST PUSH2 0xC5C PUSH1 0x40 DUP4 ADD DUP6 PUSH2 0x943 JUMP JUMPDEST PUSH2 0xC69 PUSH1 0x60 DUP4 ADD DUP5 PUSH2 0xA9C JUMP JUMPDEST SWAP6 SWAP5 POP POP POP POP POP JUMP JUMPDEST PUSH1 0x0 DUP2 SWAP1 POP SWAP3 SWAP2 POP POP JUMP JUMPDEST PUSH1 0x0 DUP3 DUP3 MSTORE PUSH1 0x20 DUP3 ADD SWAP1 POP SWAP3 SWAP2 POP POP JUMP JUMPDEST PUSH1 0x0 PUSH2 0xC99 DUP3 PUSH2 0xCAC JUMP JUMPDEST SWAP1 POP SWAP2 SWAP1 POP JUMP JUMPDEST PUSH1 0x0 DUP2 ISZERO ISZERO SWAP1 POP SWAP2 SWAP1 POP JUMP JUMPDEST PUSH1 0x0 PUSH20 0xFFFFFFFFFFFFFFFFFFFFFFFFFFFFFFFFFFFFFFFF DUP3 AND SWAP1 POP SWAP2 SWAP1 POP JUMP JUMPDEST PUSH1 0x0 DUP2 SWAP1 POP SWAP2 SWAP1 POP JUMP JUMPDEST PUSH1 0x0 PUSH2 0xCE1 DUP3 PUSH2 0xCCC JUMP JUMPDEST SWAP2 POP PUSH32 0xFFFFFFFFFFFFFFFFFFFFFFFFFFFFFFFFFFFFFFFFFFFFFFFFFFFFFFFFFFFFFFFF DUP3 EQ ISZERO PUSH2 0xD14 JUMPI PUSH2 0xD13 PUSH2 0xD1F JUMP JUMPDEST JUMPDEST PUSH1 0x1 DUP3 ADD SWAP1 POP SWAP2 SWAP1 POP JUMP JUMPDEST PUSH32 0x4E487B7100000000000000000000000000000000000000000000000000000000 PUSH1 0x0 MSTORE PUSH1 0x11 PUSH1 0x4 MSTORE PUSH1 0x24 PUSH1 0x0 REVERT JUMPDEST PUSH32 0x4E487B7100000000000000000000000000000000000000000000000000000000 PUSH1 0x0 MSTORE PUSH1 0x32 PUSH1 0x4 MSTORE PUSH1 0x24 PUSH1 0x0 REVERT JUMPDEST PUSH1 0x0 DUP1 REVERT JUMPDEST PUSH32 0x205472616E7366657220616D6F756E74206D7573742062652067726561746572 PUSH1 0x0 DUP3 ADD MSTORE PUSH32 0x207468656E203020000000000000000000000000000000000000000000000000 PUSH1 0x20 DUP3 ADD MSTORE POP JUMP JUMPDEST PUSH32 0x20496E76616C6964207472616E73616374696F6E204944000000000000000000 PUSH1 0x0 DUP3 ADD MSTORE POP JUMP JUMPDEST PUSH32 0x496E76616C6964205472616E73616374696F6E20494400000000000000000000 PUSH1 0x0 DUP3 ADD MSTORE POP JUMP JUMPDEST PUSH32 0x20496E76616C6964207265636569766572206164647265737300000000000000 PUSH1 0x0 DUP3 ADD MSTORE POP JUMP JUMPDEST PUSH32 0x496E76616C6964207472616E73616374696F6E20494400000000000000000000 PUSH1 0x0 DUP3 ADD MSTORE POP JUMP JUMPDEST POP JUMP JUMPDEST PUSH32 0x5472616E73616374696F6E20697320616C726561647920657865637574656420 PUSH1 0x0 DUP3 ADD MSTORE POP JUMP JUMPDEST PUSH32 0x205472616E73616374696F6E20697320616C726561647920636F6E6669726D65 PUSH1 0x0 DUP3 ADD MSTORE PUSH32 0x6400000000000000000000000000000000000000000000000000000000000000 PUSH1 0x20 DUP3 ADD MSTORE POP JUMP JUMPDEST PUSH32 0x5472616E73616374696F6E20457865637574696F6E204661696C656421000000 PUSH1 0x0 DUP3 ADD MSTORE POP JUMP JUMPDEST PUSH2 0xF22 DUP2 PUSH2 0xC8E JUMP JUMPDEST DUP2 EQ PUSH2 0xF2D JUMPI PUSH1 0x0 DUP1 REVERT JUMPDEST POP JUMP JUMPDEST PUSH2 0xF39 DUP2 PUSH2 0xCCC JUMP JUMPDEST DUP2 EQ PUSH2 0xF44 JUMPI PUSH1 0x0 DUP1 REVERT JUMPDEST POP JUMP INVALID LOG2 PUSH5 0x6970667358 0x22 SLT KECCAK256 0xC5 0x49 SWAP10 CREATE 0xC2 NUMBER CODECOPY LOG2 PUSH18 0xE38218D4DA2613FB8A6352F9E9A9613AF8F2 PUSH25 0x5B4C8A2D64736F6C6343000807003300000000000000000000 "
				},
				"gasEstimates": {
					"creation": {
						"codeDepositCost": "793000",
						"executionCost": "infinite",
						"totalCost": "infinite"
					},
					"external": {
						"confiremTransaction(uint256)": "infinite",
						"executeTransaction(uint256)": "infinite",
						"numconfirmRequired()": "2429",
						"owners(uint256)": "4934",
						"submitTransaction(address)": "infinite",
						"transactions(uint256)": "infinite"
					},
					"internal": {
						"isTransactionConfirmed(uint256)": "infinite"
					}
				},
				"methodIdentifiers": {
					"confiremTransaction(uint256)": "79d073e9",
					"executeTransaction(uint256)": "ee22610b",
					"numconfirmRequired()": "4d18c8f8",
					"owners(uint256)": "025e7c27",
					"submitTransaction(address)": "66d651db",
					"transactions(uint256)": "9ace38c2"
				}
			},
			"storageLayout": {
				"storage": [
					{
						"astId": 4,
						"contract": "contracts/Wallet_distributed.sol:Multisig",
						"label": "owners",
						"offset": 0,
						"slot": "0",
						"type": "t_array(t_address)dyn_storage"
					},
					{
						"astId": 6,
						"contract": "contracts/Wallet_distributed.sol:Multisig",
						"label": "numconfirmRequired",
						"offset": 0,
						"slot": "1",
						"type": "t_uint256"
					},
					{
						"astId": 19,
						"contract": "contracts/Wallet_distributed.sol:Multisig",
						"label": "isConfirmed",
						"offset": 0,
						"slot": "2",
						"type": "t_mapping(t_uint256,t_mapping(t_address,t_bool))"
					},
					{
						"astId": 23,
						"contract": "contracts/Wallet_distributed.sol:Multisig",
						"label": "transactions",
						"offset": 0,
						"slot": "3",
						"type": "t_array(t_struct(Transaction)13_storage)dyn_storage"
					}
				],
				"types": {
					"t_address": {
						"encoding": "inplace",
						"label": "address",
						"numberOfBytes": "20"
					},
					"t_array(t_address)dyn_storage": {
						"base": "t_address",
						"encoding": "dynamic_array",
						"label": "address[]",
						"numberOfBytes": "32"
					},
					"t_array(t_struct(Transaction)13_storage)dyn_storage": {
						"base": "t_struct(Transaction)13_storage",
						"encoding": "dynamic_array",
						"label": "struct Multisig.Transaction[]",
						"numberOfBytes": "32"
					},
					"t_bool": {
						"encoding": "inplace",
						"label": "bool",
						"numberOfBytes": "1"
					},
					"t_mapping(t_address,t_bool)": {
						"encoding": "mapping",
						"key": "t_address",
						"label": "mapping(address => bool)",
						"numberOfBytes": "32",
						"value": "t_bool"
					},
					"t_mapping(t_uint256,t_mapping(t_address,t_bool))": {
						"encoding": "mapping",
						"key": "t_uint256",
						"label": "mapping(uint256 => mapping(address => bool))",
						"numberOfBytes": "32",
						"value": "t_mapping(t_address,t_bool)"
					},
					"t_struct(Transaction)13_storage": {
						"encoding": "inplace",
						"label": "struct Multisig.Transaction",
						"members": [
							{
								"astId": 8,
								"contract": "contracts/Wallet_distributed.sol:Multisig",
								"label": "to",
								"offset": 0,
								"slot": "0",
								"type": "t_address"
							},
							{
								"astId": 10,
								"contract": "contracts/Wallet_distributed.sol:Multisig",
								"label": "value",
								"offset": 0,
								"slot": "1",
								"type": "t_uint256"
							},
							{
								"astId": 12,
								"contract": "contracts/Wallet_distributed.sol:Multisig",
								"label": "executed",
								"offset": 0,
								"slot": "2",
								"type": "t_bool"
							}
						],
						"numberOfBytes": "96"
					},
					"t_uint256": {
						"encoding": "inplace",
						"label": "uint256",
						"numberOfBytes": "32"
					}
				}
			},
			"userdoc": {
				"kind": "user",
				"methods": {},
				"version": 1
			}
		}
	}
}